:100000000C94F4030C943B040C943B040C943B04BC
:100010000C943B040C943B040C943B040C943B0464
:100020000C943B040C943B040C945F230C943724F5
:100030000C9414230C943B040C943B040C943B044C
:100040000C943B040C943B040C943B040C943B0434
:100050000C943B040C943B230C943B040C943B0405
:100060000C943B040C943B040C943B040C943B0414
:100070000C943B040C943B040C943B040C943B0404
:100080000C943B040C943B040C943B040C943B04F4
:100090000C943B040C943B040C943B040C943B04E4
:1000A0000C943B040C943B040C943B040501098024
:1000B000A101850319012AB700150126B700950192
:1000C00075108100C0050C0901A101850419012AE0
:1000D000A002150126A002950175108100C005013E
:1000E0000906A1018506050719E029E71500250184
:1000F0009508750181020507190029EF15002501F2
:1001000095F075018102050819012905950575010C
:100110009102950175039101C00660FF0961A1017B
:100120000962150026FF00952075088102096315F4
:100130000026FF00952075089102C005010906A15F
:1001400001050719E029E7150025019508750181CA
:10015000029501750881010507190029FF15002680
:10016000FF00950675088100050819012905950508
:1001700075019102950175039101C009025B0003AD
:100180000100A0FA09040000010301010009211186
:100190000100012240000705810308000109040154
:1001A00000020300000009211101000122220007C2
:1001B0000582032000010705030320000109040252
:1001C000000103000000092111010001226D000758
:1001D0000584032000011201000200000008646988
:1001E00080000100010200010A03490044003800B8
:1001F000300000000E03490044004F00420041005F
:100200004F00000004030904E000E10039002B0066
:100210003500290000000000000000000000E3009D
:100220000000040014001E003A000000000000005E
:1002300000000000E2001D0016001A001F003B0035
:10024000000000004C004A0049004F001B0007005E
:10025000080020003C005200000031000000450072
:10026000510006000900150021003D00E5002800AE
:1002700030002E004400500019000A001700220030
:100280003E00380034002F002D0043002C000500F4
:100290000B001C0023003F000000000000002A00AB
:1002A0000151E40011000D00180024004000370047
:1002B0003300130027004200E60010000E000C007F
:1002C0002500410036000F0012002600000001004A
:1002D0000100010001000100005C000000000000BE
:1002E00000000000010000000100C25C01000100EC
:1002F00000000000000000000000010001000100FB
:100300000100010001000000000001000100A80040
:10031000C05C01000100C35C01000100BE5C000084
:10032000010000000100BD5CBD5C0100C55C010076
:10033000010001000100010001000100BF5CBF5C81
:100340000100C65C01000100010001000100010084
:1003500001000100BE5C0100C75C0100010000005B
:1003600000000000010001000100145C0100C85CF5
:100370000100010001000100010001000100010075
:1003800001000100C95C0100010001000100CA5C1C
:100390000100000001000100010001000100010056
:1003A000000000000000000000000100000001004B
:1003B000010001000100000000000000000000003A
:1003C0000100010001000100010001000000000027
:1003D0000100010001000100010001000100010015
:1003E0000100010000000100000001000100010007
:1003F00001000100010001000100010001000100F5
:1004000001000100010001000100010001000100E4
:1004100001000100010001000100010001000100D4
:1004200001000100000000000000010001000100C7
:1004300001000100010001000100010001000100B4
:1004400001000100010001000100010001000100A4
:100450000100010001000100000001000100010095
:100460000100010001000000000000000000000089
:100470000100000001000100010001000000000077
:100480000000000000000100010001000100010067
:100490000100000000000100010001000100010056
:1004A0000100010001000100010000000100000046
:1004B0000100010001000100010001000100010034
:1004C0000100010001000100010001000100010024
:1004D0000100010001000100010001000100010014
:1004E0000100010001000100010000000000000007
:1004F00001000100010001000100010001000100F4
:1005000001000100010001000100010001000100E3
:1005100001000100010001000100010001000000D4
:100520002223252628292A2C2D2F30323335363800
:100530003A3B3D3E4042434547494A4C4E50515359
:100540005557595A5C5E6062646668696B6D6F717D
:10055000737577797B7D7F81838587898A8C8E907F
:10056000929496989A9C9E9FA1A3A5A7A8AAACAE88
:10057000AFB1B3B4B6B8B9BBBCBEBFC1C2C3C5C6C8
:10058000C7C9CACBCCCDCED0D1D2D2D3D4D5D6D771
:10059000D7D8D9D9DADADBDBDBDCDCDCDCDCDDDDAF
:1005A000DDDDDCDCDCDCDCDBDBDBDADAD9D9D8D79F
:1005B000D7D6D5D4D3D2D2D1D0CECDCCCBCAC9C741
:1005C000C6C5C3C2C1BFBEBCBBB9B8B6B4B3B1AF78
:1005D000AEACAAA8A7A5A3A19F9E9C9A9896949218
:1005E000908E8C8A89878583817F7D7B79777573EF
:1005F000716F6D6B6968666462605E5C5A595755CD
:100600005351504E4C4A4947454342403E3D3B3A88
:100610003836353332302F2D2C2A2928262523220F
:10062000FFAA7F5540000101010101010101010202
:100630000202020202020202030303030303030392
:10064000040404040404040505050505060606065D
:1006500006070707070708080808090909090A0A19
:100660000A0B0B0B0C0C0C0D0D0D0E0E0E0F0F0FBD
:100670001010111111121213131414151516161748
:1006800017181819191A1A1B1B1C1D1D1E1E1F20B6
:1006900020212222232424252626272829292A2B03
:1006A0002C2D2D2E2F303132323334353637383928
:1006B0003A3B3C3D3E3F4041424344454647484922
:1006C0004A4C4D4E4F50515354555658595A5B5DF4
:1006D0005E5F616264656668696B6C6D6F70727392
:1006E0007577787A7B7D7E8082838587888A8C8EF9
:1006F0008F91939596989A9C9EA0A2A3A5A7A9AB2B
:10070000ADAFB1B3B5B7BABCBEC0C2C4C6C9CBCD1C
:10071000CFD1D4D6D8DBDDDFE2E4E7E9EBEEF0F3CE
:10072000F5F8FAFDFF00047F3F1F643214643214B1
:10073000783C1E1E140A05000000000000000000A6
:1007400000000000000000000000000000000000A9
:1007500000000000000000000000007E0F00D4FF39
:10076000FFFFC70000007800000000000000002A22
:100770002B28000000000000000000000000000026
:10078000000029000000002C1E34202122243426E1
:1007900027252E362D3738271E1F202122232425DA
:1007A000263333362E37381F0405060708090A0B8F
:1007B0000C0D0E0F101112131415161718191A1B01
:1007C0001C1D2F3130232D350405060708090A0B9F
:1007D0000C0D0E0F101112131415161718191A1BE1
:1007E0001C1D2F3130354C0011241FBECFEFDAE035
:1007F000DEBFCDBF04B603FE27C08091EB0290910F
:10080000EC02A091ED02B091EE028730904BA74030
:10081000B04BD1F41092EB021092EC021092ED0268
:100820001092EE0214BE84B7877F84BF0FB6F8948F
:10083000A8958091600088618093600010926000AC
:100840000FBEE0E0F8E3099511E0A0E0B1E0E2EAD4
:10085000FBE402C005900D92A639B107D9F722E05A
:10086000A6E9B1E001C01D92AB3EB207E1F70E94DC
:100870006A1E0C9484250C94000081FD02C0479AE6
:10088000089547980895E82F2BE0929FE00D1124DA
:100890008E2F877041E001C0440F8A95EAF7E695F4
:1008A000E695E69583E0E89FF0011124E658FD4FB8
:1008B00030E020E070E05191DF011197CB01022E72
:1008C00002C0969587950A94E2F7817081958527F5
:1008D000842385278C932F5F3F4F2330310559F7B1
:1008E0000895E82F2BE0929FE00D11249E2F977022
:1008F000E695E695E69583E0E89FF0011124E65839
:10090000FD4F50E040E080E0219130E0092E02C030
:10091000369527950A94E2F721703327042E01C0FB
:10092000220F0A94EAF7822B4F5F5F4F4330510545
:1009300059F708958091B4029091B302981301C0C1
:1009400008958F5F8770FACF90911A019923E1F093
:100950009091B00297FF18C0E82FE695E695E695CE
:10096000803FF0F4F0E0E856FE4F877021E030E081
:10097000A90102C0440F551F8A95E2F7CA0180956C
:100980009281892382830895EAE9F1E091918913A4
:1009900003C0DF0111971C9251E0E03AF507B1F76F
:1009A0000895982F90958091AB0289238093AB0294
:1009B00008958091AC0281111092AC02089580914B
:1009C000AB029091B202892B9091A102892B809366
:1009D00098019091AC029923A1F0892B8093980102
:1009E00080911A01882341F18091B00287FF24C0D1
:1009F0008EE1EAE9F1E090E0815000F591110E946A
:100A0000D904E0917802F09179023097E1F0809179
:100A10001A01882359F08091B00287FF07C08091A6
:100A200098018093990186E0809398010280F38178
:100A3000E02D88E991E0099486E0DBCF2191222323
:100A4000D9F29F5FD9CF0895882339F09091AB02F6
:100A5000892B8093AB020C94DF040895882321F046
:100A60000E94D1040C94DF0408959091B00292FF8B
:100A700006C0282F28712830F9F4877F846093FFFF
:100A800006C0282F28712831F1F4877E84612091D7
:100A9000B10220FF06C0382F38713830D9F4877F73
:100AA000816021FF06C0282F28712831D1F4877E6C
:100AB000816194FD877E0895282F24712430F9F6F2
:100AC0008B7F8860DCCF282F2471243101F78B7E47
:100AD0008861DDCF382F3171313019F78E7F886012
:100AE000E0CF282F2171213121F78E7E8861E1CF5F
:100AF000CF93DF93EC01803E910509F45EC048F589
:100B00008133910509F4A1C088F48932910509F473
:100B100095C08A9709F4A0C0C130D10529F1CE0152
:100B20000497813A910508F054C01EC0893391059D
:100B3000E9F182389105D1F1C59709F478C0C83A36
:100B4000D10508F090C0C53AD10530F3A497D06420
:100B50000BC0843E910509F44FC050F4823E9105CC
:100B6000D9F1833E9105E9F1CE01DF91CF9108954E
:100B7000863E910509F44BC0873E910509F44CC0AF
:100B8000811523E5920708F08BC0811532E59307A4
:100B900008F0FDC0C11580E5D80708F077C0C11581
:100BA00020E4D20760F2DF70D06ADECF8091B0021D
:100BB0008370D1F2C0EED0E0D7CF8091B00280FD3B
:100BC00011C19091B10290FFCFCFC3EED0E084FF6E
:100BD000CBCFD0E0C0E0C8CF8091B00282FDF5CF8E
:100BE000C3CF8091B00282FD00C19091B10290FD0F
:100BF000E1CF84FFB9CFEDCF8091B10281FFB4CFB7
:100C00008091B002C7EED0E084FDE3CFADCF8091FC
:100C1000B00283FDF7CFA8CF8091B00283FDE8C07A
:100C20009091B10291FFE5CFC4EED0E09DCF8091CD
:100C3000B00285FF99CFC9E2D0E096CF8091B00293
:100C400085FF92CFC5E3D0E08FCF8091B00286FFC1
:100C50008BCFCAE2D0E088CF8091B00286FF84CFEC
:100C6000C1E3D0E081CFCF3BD10508F468C0C83ED6
:100C7000D10528F4C03ED10508F4ABCF75CFCE0125
:100C80009A9581159F4108F0A4CF6ECFC11581E5DB
:100C9000D80708F45FC0DC2FCC27C16FD06A64CFBF
:100CA000811529E59207A0F5811538E5930708F02D
:100CB00086C0C11585E5D807C8F4C11524E5D2075B
:100CC00008F078C09E012370332781E090E002C0D5
:100CD000880F991F2A95E2F7C695C69530E2C39F03
:100CE000E0011124C82BD92BDA683ECFCE019555EF
:100CF0008F3F910511F008F06CCF8C2F0E943505C5
:100D0000C82FD0E0DC2FCC27CC27DF71D0622CCFCE
:100D1000C1158AE5D80708F457C0CE019056811551
:100D2000904208F056CF8D2F8F710E94350590E0CC
:100D3000982F882788279F718C2BEC01E7CFC85A02
:100D4000D0E0CC0FDD1FC959DE4F0990D881C02DEE
:100D5000D4640ACF9E0174E0369527957A95E1F721
:100D600023708C2F86958695837030E2839FC00117
:100D70001124922BC37021E030E002C0220F331FF8
:100D8000CA95E2F7822B932BEC01DC68EDCE9C0137
:100D90002370332781E090E002C0880F991F2A95C5
:100DA000E2F7C695C69520E2C29FE0011124C82B48
:100DB000D92BEBCFDC2FCC27C46FD06AD5CED82F60
:100DC000CC27C06FD06AD0CE8C2F8F700E94350593
:100DD00034E0D695C7953A95E1F7CF709C2FEC019A
:100DE000D069C2CEC9E3D0E0BFCEC2EED0E0BCCE67
:100DF000C6EED0E0B9CE80E00895F894E82FE295F1
:100E0000EF70F0E041A18F7021E030E0B90102C045
:100E1000660F771F8A95E2F7CB01962F9095942362
:100E200091A392A1892B82A37894089508956F923B
:100E30007F928F929F92AF92BF92CF92DF92EF926A
:100E4000FF920F931F93CF93DF93B82EA62E8901A5
:100E5000E42FF0E0EB5DF94F611119C0E4918E2FA2
:100E60002E2FD80111962C931197EC9312968C93F8
:100E7000DF91CF911F910F91FF90EF90DF90CF9076
:100E8000BF90AF909F908F907F906F900895E62EC7
:100E9000F12C249186E0B89E60011124CFEFD0E0C0
:100EA000C601BE010E948E248B2D90E0880F991FF1
:100EB00035E5369FA001379F500D1124841B950BFB
:100EC000982F990F980FAE014E195F09249FD001FA
:100ED000259FB00D1124EB2FA99E50011124AB2C9E
:100EE000BB24AE014A195B09249F5001259FB00C19
:100EF00011248B2D3E01691A71086E9C40016F9C74
:100F0000900C7E9C900C1124892C9924C819D90925
:100F10002C9FA0012D9F500D112463307105D1F03D
:100F20009CEFC91693E0D90670F461307105B1F0F9
:100F300062307105B9F0FFEFCF16D10408F091CF00
:100F40008B2FE52F8ECF6430710579F066307105F7
:100F5000B9F387CFEB2D822F2B2F83CFE22F2B2DB1
:100F60008B2F7FCF852FE22FF7CF822F252F79CFA1
:100F70008091A602982F9E7F29F4817082608093D1
:100F8000A60208958A34E8F381708864F8CFFA01E4
:100F900081110994FB01FDCFE0917802F091790273
:100FA000309721F00190F081E02D099480E00895C0
:100FB0002091EC013091ED012817390771F09093E1
:100FC000ED018093EC01E0917802F0917902309785
:100FD00021F00680F781E02D099408952091EA011F
:100FE0003091EB012817390771F09093EB01809352
:100FF000EA01E0917802F0917902309721F00084C3
:10100000F185E02D09940895882329F19CEF980F2C
:10101000913A20F40E94A4040C94DF0490E2980F0B
:10102000983050F4877091E001C0990F8A95EAF7E3
:10103000892F0E94D104F0CF9BE5980F933020F4C4
:1010400090E080E00C94D807885A873120F490E033
:1010500080E00C94EE07089590E080E00E94D807AD
:1010600090E080E00E94EE071092B2021092A1027E
:101070000C94DF048093AD020C942C088093AE0294
:101080000C942C0821E030E001C0220F8A95EAF789
:101090008091AE02822B0C943E0821E030E001C02A
:1010A000220F8A95EAF720958091AE0282230C9454
:1010B0003E089091AF02809589238093AF02282F3C
:1010C000277091F4282F082E000C330B921713066B
:1010D00059F09091B10292FD07C08595859585954F
:1010E0000E944D081092AF0208959C0180911A0150
:1010F0008823C1F08091B00287FF14C0862F8695A7
:1011000086958695603FF8F4F901E80FF11D677048
:1011100021E030E001C0220F6A95EAF78281822B3C
:1011200082830895F90132968FEF90E04191641720
:1011300051F08F3F19F4411101C0892F9F5F963004
:10114000A9F78F3F09F40895280F311D87FD3A95BF
:10115000F90162830895CF93C82F882309F463C0EF
:101160008CEF8C0F813AA8F580911A01882301F148
:101170008091B00287FF1CC0EC2FE695E695E695BE
:10118000F0E0E856FE4F828190E04C2F477021E05E
:1011900030E002C0220F331F4A95E2F782239323E7
:1011A000892B79F08C2F0E94A4040E94DF0409C0CF
:1011B000EAE9F1E08191C817A9F321E0E03AF207EA
:1011C000C9F76C2F88E991E00E947508CF910C94C3
:1011D000DF0480E28C0F883068F4C77021E030E0D3
:1011E00001C0220FCA95EAF78091AB02822B80934F
:1011F000AB02ECCF8BE58C0F833038F42C2F2452CC
:10120000330BC901CF910C94D807C85AC73158F491
:10121000EC2FF0E0EE0FFF1FE959FE4F8081918126
:10122000CF910C94EE07CF9108952FB7F894809149
:101230004D0290914E02A0914F02B09150022FBFEB
:1012400008958091E901089508950895FC01CB0166
:101250002091C4013091C5012617370790F00097FF
:1012600029F42091E8002E772093E80040E00097D1
:1012700051F4411108C08091E80082FF31C080E044
:101280000895C901F3CF20914C022223A9F1253002
:10129000A9F12091E80023FD2DC02091E80022FD56
:1012A000EACF2091E80020FFE2CF3091F3002091B7
:1012B000F200009719F02830310558F041E028304D
:1012C000310509F040E02091E8002E772093E800F6
:1012D000CECF41914093F10001972F5F3F4FE9CF6F
:1012E00080914C02882341F0853041F08091E800E4
:1012F00083FFC1CF81E0089582E0089583E00895DF
:101300008091BE0187FF13C08091E80082FF06C074
:101310008091E8008B778093E80004C080914C02B4
:101320008111F2CF089580914C028823D9F38091E6
:10133000E80080FFF8CF8091E8008E77ECCF209115
:10134000E4003091E50095E6A9012091EC00822FA0
:10135000817020FF06C08091E80080FF06C080E019
:1013600008952091E80022FD1AC080914C02882344
:1013700089F0853089F08091EB0085FD0FC02091C8
:10138000E4003091E50042175307F9F29150E1F67D
:1013900084E0089582E0089583E0089581E008954F
:1013A000E8EDF0E080818E7F80831092E200109261
:1013B000DA001092E100A0EEB0E08C9181608C9395
:1013C00080818F77808319BCA7EDB0E08C918E7FF0
:1013D0008C9380818F7E80831092BD010895EF925F
:1013E000FF920F931F93CF937C018B010E949F0963
:1013F000C82F811117C08091E80085FD0BC0809136
:10140000E8008E778093E8000E949F09882399F373
:10141000C82F08C0F70181917F018093F10001502E
:10142000110949F78C2FCF911F910F91FF90EF90E9
:1014300008958091AE02982F9670963019F48860C6
:101440000C943E08877FFCCF982F9093E900242FBF
:10145000762F50E0891731F07091EC002091ED006B
:101460005091F00021FD06C09F5F973071F7809387
:10147000E90008953091EB003E7F3093EB0030910E
:10148000ED003D7F3093ED003091EB003160309303
:10149000EB007093EC002093ED005093F00020914E
:1014A000EE0027FDE1CF0895CF92DF92EF92FF92F9
:1014B0000F931F93CF93DF93C8EDD0E088818F7E89
:1014C0008883E7EDF0E080818160808384E082BFE3
:1014D00081E08093BD0188818E7F888302EE10E0D9
:1014E000F80110821092DA0081EEC82ED12CF6019C
:1014F000108288818F77888388818068888388813B
:101500008F7D888319BC10924C021092BC011092FE
:1015100031021092BB0190EEE92EF12CF70180818F
:101520008B7F808388818160888342E060E080E0F7
:101530000E94240AF60180818E7F8083F8018081D9
:1015400081608083808188608083F70180818E7FC5
:101550008083888180618883DF91CF911F910F9173
:10156000FF90EF90DF90CF9008950F931F93CF934C
:10157000C82F10E000E0893311F400E510E08C2F53
:101580000E94AB080115110531F48C2FCF911F91EA
:101590000F910C9404088FE99FE00197F1F700C0C8
:1015A000000001501109EECFFF920F931F93CF93CC
:1015B000DF93C62FD42FF22E8823A9F06093A202C6
:1015C0000E9415099093B9018093B801C77081E01A
:1015D00001C0880FCA95EAF7DF91CF911F910F9153
:1015E000FF900C9424058091A20268133FC02091C3
:1015F000B8013091B9015FB7F89480914D02909194
:101600004E02A0914F02B09150025FBF821B930B1C
:10161000883C910558F510E2140F6417A1F0C770CB
:1016200001E0802F01C0880FCA95EAF70E942E05BD
:10163000183048F48D2F877001C0000F8A95EAF7A3
:10164000802F0E9424058F2D0E94B50A1830A8F41F
:101650004D2F477081E001C0880F4A95EAF7DF916E
:10166000CF911F910F91FF900C942E05C77081E0D0
:1016700001C0880FCA95EAF7F2CFDF91CF911F9191
:101680000F91FF9008958091A60280FD0AC0E1EFBE
:10169000F1E0118210821282339652E0ED32F507AA
:1016A000C1F76A9A3EB13B7F2EB124604FB7F894E0
:1016B00081EF91E0FC010196508168E02EB90000B5
:1016C00000C057FF3EB9550F000000C000C000C069
:1016D0003EB900C06A9591F752E08D32950751F7F7
:1016E0004FBF8FE594E00197F1F700C00000089527
:1016F000EF92FF920F931F93CF93DF93EC0101EFD3
:1017000011E0F12CE12C9C816091A8028091A7024C
:101710002AE0E216F104FCF49923F9F098014091D3
:10172000A9020E9417078FEFE81AF80A0D5F1F4FF2
:1017300024E1E216F10439F70E94430B8C8190E01A
:101740000196817099278C83DF91CF911F910F9122
:10175000FF90EF900895992309F3980140E0E1CFBD
:10176000EF92FF921F93CF93DF93EC0181EFE82E6E
:1017700081E0F82E10E08C8197014091A9026091E0
:10178000A802810F0E941707145F83E0E80EF11C86
:10179000103F89F70E94430B9A818C8190FF08C00B
:1017A0008F5F8C83DF91CF911F91FF90EF90089511
:1017B0008150F7CFCF92DF92EF92FF920F931F935A
:1017C000CF93DF93FC018281DD24DA9480FD02C097
:1017D000DD24D39401EF11E0D0E0C0E0F8011182E4
:1017E0001082128294E0E92EF12CC12C8091F0013C
:1017F0008C0D8531E4F164E10E948024892F082E4C
:10180000000C990B8C179D0791F48091A9028E9D75
:10181000A0018F9D500D11245595479555954795DD
:1018200098016091A8028091A7020E941707CD0C31
:10183000F1E0EF1AF108D1F621960D5F1F4FC43188
:10184000D10561F60E94430B8091F00191E0D9121D
:1018500012C08823B1F081508093F001DF91CF91C5
:101860001F910F91FF90EF90DF90CF90089587FF29
:10187000C6CF8C5EC4CF90E00196BE010E94A22428
:10188000EBCF83E1E9CF0F931F93CF93DF93C1EFAA
:10189000D1E0FE01118210821282339682E0ED3295
:1018A000F807C1F710E000E08091EF01082E000C6E
:1018B000990B081719078CF180910201082E000C72
:1018C000990B801791074CF19E014091A9026091FC
:1018D000A8028091A7020E9417070F5F1F4F23964F
:1018E0000431110509F70E94430B80910101909189
:1018F000EF01980F9093EF0120910201280F2093A0
:101900000201121614F493311CF0819580930101A9
:10191000DF91CF911F910F910895198218821A8239
:10192000DCCFCF92DF92EF92FF920F931F93CF9372
:10193000DF93CDB7DEB72E970FB6F894DEBF0FBE9C
:10194000CDBF8D879E87AD85BE8514961C91212FB6
:1019500030E0D9010E94ED249B01AC010E940325D7
:1019600069837A838B839C83E0E2F0E0E11BF109D9
:10197000A5E5B0E09B01AC010E94032569877A8749
:101980008B879C879F01DF010E94E5249B01AC01AE
:101990000E940E256D837E838F8398879B01AC0107
:1019A00089819A81AB81BC81280F391F4A1F5B1F37
:1019B00069857A858B859C850E94B624F22E422FFC
:1019C00050E099E29F1508F442C0A3E02A9F9001DD
:1019D000112435952795122F109591EFC92E91E07E
:1019E000D92E00E085E5E82EEF188E2D01FD8F2D14
:1019F0009601412F6091A8020E9417070F5FB3E084
:101A0000CB0ED11C043189F70E94430BED85FE8576
:101A1000948181E0992319F0903219F48FEF80932B
:101A2000000180910001890FAD85BE8514968C93CD
:101A30002E960FB6F894DEBF0FBECDBFDF91CF91CB
:101A40001F910F91FF90EF90DF90CF90089585E563
:101A500090E0841B950B9C01220F331F280F391F28
:101A600037FFB7CF2F5F3F4FB4CF9091A60290FFC3
:101A70000CC0E1EFF1E0818360834283339692E012
:101A8000ED32F907C1F70C94430B08950F931F93A0
:101A9000CF93DF9300D00F92CDB7DEB78C0180914A
:101AA000EE0181110AC09E012F5F3F4F4FEF6FEF94
:101AB0000E9417078A818093EE01F80164816130EA
:101AC00049F06230F1F08091EE0140E0662331F0A0
:101AD00040E019C06091EE0140E080E00E94350DC9
:101AE000F801848190E0019663E070E00E94A224F6
:101AF00084830F900F900F90DF91CF911F910F91E2
:101B000008954091EE0180E060E0E8CFCF93DF934D
:101B100000D00F92CDB7DEB79091A60290FF0FC014
:101B20009E012F5F3F4F0E9417074B8169818A8179
:101B30000F900F900F90DF91CF910C94350D0F9077
:101B40000F900F90DF91CF910895CF93DF93EC0129
:101B5000EC81F0E0E05EFA4F4491E6EAF2E0628167
:101B600081810E94860D8C818F5F8C83DF91CF9164
:101B70000895CF93DF93EC01E6EAF2E043816281BE
:101B80008C810E94860D8C818F5F8C83DF91CF9139
:101B9000089581E08093E00080E28093D800109265
:101BA000C9008FE19EE40197F1F700C0000087E0D3
:101BB00090EBDC018093EB029093EC02A093ED029A
:101BC000B093EE0288E19CE00FB6F894A89580935C
:101BD00060000FBE90936000FFCFCF93DF93D82FAC
:101BE000C92F80911A018823C1F18091B00287FF2B
:101BF00034C060E284E08093E9008FEF9091E800C8
:101C0000815095FD06C095ED9A95F1F70000811180
:101C1000F5CF8091E80085FF1DC080911A0170E02A
:101C200050E040E0811104C050E040E068E070E026
:101C30008D2F9C2F0E94EF098091E8008E77809372
:101C4000E80080E2ED2FFC2FA9ECB1E001900D92AD
:101C50008A95E1F7DF91CF91089568E081E0CBCFDD
:101C60008093C6017093C8016093C70180914C02B4
:101C70008430F9F48093E9008FEF9091E80081506F
:101C800095FD06C095ED9A95F1F700008111F5CF0D
:101C90008091E80085FF0DC050E040E063E070E017
:101CA00086EC91E00E94EF098091E8008E778093A6
:101CB000E8000895BC0183E00C94300EBC0184E080
:101CC0000C94300ECF93682FC92F84E090E00E94CF
:101CD00036256C2F82E290E0CF910C9436259091BE
:101CE000B10292FB222720F9281769F080FB92F9B4
:101CF0009093B1028091B0029091B1020E94620E65
:101D000082E00C94590808954F925F926F927F92EF
:101D10008F929F92AF92BF92CF92DF92EF92FF92FB
:101D20000F931F93CF93DF9310E000E036EC632E08
:101D3000712CE801CC0FDD1F58011CC0F601859005
:101D40009490692DC7010E943625682DC701019620
:101D50000E94362522E0C20ED11C32E0E30EF11CB7
:101D60004E145F0459F766968BE0A80EB11CC61599
:101D7000D70581F0C501880F991F9C01285F3D4F51
:101D800069017E0137E2E30EF11C2E018DE3480E5E
:101D9000511CD4CF3E0126EC620E711C0D591F4F11
:101DA0000C3831E0130729F6DF91CF911F910F9185
:101DB000FF90EF90DF90CF90BF90AF909F908F906B
:101DC0007F906F905F904F900895CF93C82F6FEFE3
:101DD000811162E283E290E00E9436256FEFC1112B
:101DE00062E084E290E00E9436256FEFC11161E06D
:101DF00085E290E0CF910C943625CF93DF93CFE32B
:101E0000D3E060E0CE010E9436252196C11584E022
:101E1000D807B9F7DF91CF91089580E00E94E50ED1
:101E200060E086E290E00E9436250E94840E0E94C7
:101E3000FD0E81E00C94E50ECF9384E090E00E94CB
:101E40002225C82F82E290E00E942225982F8C2F15
:101E5000CF91089583E290E00E942225823289F496
:101E600084E290E00E942225823059F485E290E0DD
:101E70000E94222591E0813009F090E0892F817045
:101E8000089580E0FCCF0F931F93CF93DF93C42F6F
:101E9000D0E0CC0FDD1F26E1629FC00DD11D1124C3
:101EA00036EC839FC00DD11D1124CE0187960E9470
:101EB0002225082F10E0102F0027CE0188960E94BF
:101EC00022259801282BC901DF91CF911F910F91F5
:101ED0000895462F672F843030F4793020F44B304A
:101EE00010F40C94430F90E080E00895DF92EF929D
:101EF000FF920F931F93CF93DF937C010091AE026B
:101F00008091AD02082BC7E0D0E010E0DC2EC801C4
:101F10000C2E02C0959587950A94E2F780FD0CC0BF
:101F20002197A0F7D12C8D2DDF91CF911F910F918B
:101F3000FF90EF90DF900895B7018C2F0E94690FFA
:101F40000E947805019761F3EECF0F931F93CF9313
:101F5000FC01828100811181882389F0662379F058
:101F6000C8010E94760FC82F682FC8010E94430441
:101F7000B8018C2FCF911F910F910C94690FC8015C
:101F80000E947104C82FF4CFCF93DF93D82FC92FAD
:101F90000E94760F6D2F7C2F0E94690FDF91CF91E9
:101FA0000C9478050E94C40F282F892F8F70392F29
:101FB00032953F70903C80F43A30B0F4343020F4E5
:101FC000323090F480E008953630E1F781E0283E29
:101FD00088F0213FB9F70EC03C3011F03F3091F747
:101FE000869586958695089581E0203F39F018F40E
:101FF000283E40F70895243F29F7FCCF089510921A
:10200000AB0280911A01EAE9F1E0882359F080914E
:10201000B00287FF07C08EE1DF011D928A95E9F7C4
:102020000C942C0886E0F8CF1F93CF93DF93CDB7A5
:10203000DEB7AA970FB6F894DEBF0FBECDBF8EEB0A
:1020400091E0FC0101962091F100208321E0863C83
:102050009207B9F78091BF01893009F456C0C8F4DE
:10206000823009F4B3C0833009F482C0813071F149
:102070008091E80083FF84C28091BE019091BF01EE
:102080009A3008F07DC2E92FF0E0EA57FA4D0C943F
:10209000D8248A3009F489C08B3051F78091BE0171
:1020A000813231F78091C2019091C301892B01F7F0
:1020B0008091E800877F8093E8000E9480098091EA
:1020C000C00180931A010E94FF0FD2CF8091BE0100
:1020D000813A71F68091E800877F8093E8008091D3
:1020E000C2019091C301892B61F460E289EC91E017
:1020F00070E00E9426098091E8008B778093E800C9
:10210000B7CF60E090E080E0F3CF8091BE018132F4
:1021100009F0AECF8091C2019091C3018D7F892BD0
:1021200009F0A6CF8091E800877F8093E800809136
:10213000E80082FF18C09091F3008091F2000297AE
:1021400031F48091F100813011F0863021F48091DA
:10215000F1008093E9018091E8008B778093E8009B
:102160000E94800985CF80914C028111E0CF80CF01
:102170008091BE01813A09F07BCF8091C20190919C
:10218000C301892B09F074CF8091E800877F809389
:10219000E8008091E80080FFFCCF80911A018093D5
:1021A000F1008091E8008E77D9CF8091BE01813215
:1021B00009F05ECF8091E800877F8093E8000E945D
:1021C00080098091C1018093BA0152CF8091BE01F4
:1021D000813A09F04DCF8091E800877F8093E80035
:1021E0008091E80080FFFCCF8091BA01D8CF803881
:1021F00099F0823809F0C4C18091C2018F70873094
:1022000008F0BEC18093E9008091EB0085FB882730
:1022100080F91092E90006C08091BB0190913102D3
:10222000911182609091E800977F9093E8008093ED
:10223000F1001092F1008091E8008E779DC1882313
:1022400009F48BC1823009F09BC18091C0018111DA
:102250008EC18091C2018F702FEF280F263008F0B9
:102260008FC18093E9002091EB0020FF80C1933063
:1022700031F48091EB0080628093EB0078C1909103
:10228000EB0090619093EB0021E030E001C0220F61
:102290008A95EAF72093EA001092EA008091EB0019
:1022A0008860EACF81116CC11091C0011F778091C5
:1022B000E3008078812B8093E3008091E800877FA2
:1022C0008093E8000E9480098091E80080FFFCCFA5
:1022D0008091E30080688093E30082E0111183E045
:1022E00080934C024DC18058823008F049C1409122
:1022F000C0015091C1014C3D83E0580799F583E03E
:102300008A838AE289834FB7F894DE01139620E02E
:102310003EE051E2E32FF0E050935700849120FF1C
:1023200003C082958F703F5F8F708A30C8F0895CE0
:1023300090E08D939D932F5F243161F74FBF809183
:10234000E800877F8093E8006AE270E0CE010196A2
:102350000E9426098091E8008B778093E80010C1E5
:10236000805DE6CF8091C2019091C301252F332774
:102370002330310509F44AC078F52130310509F4DC
:1023800079C08BE590E0EBE7F1E02230310509F010
:10239000F7C02091E800277F2093E8002091C40136
:1023A0003091C5018217930708F49C0140E0211584
:1023B000310509F064C0411162C08091E80082FDDE
:1023C000C9CF80914C02882329F2853019F280917F
:1023D000E80083FFF2CFBECF2132310509F43BC0C4
:1023E0002232310509F0CCC08330910508F0C8C015
:1023F000FC01EE0FFF1FEE5DFE4F0190F081E02D1E
:10240000815E9E4FDC018C9190E011C0CA0199273A
:10241000413089F082309105B1F0892B09F0B0C0CC
:10242000E4E0F2E0E4918E2F90E0E4E0F2E0009747
:1024300009F4A6C0AECFE4EFF1E0E4918E2F90E076
:10244000E4EFF1E0F4CFE8EEF1E0E4918E2F90E0DC
:10245000E8EEF1E0ECCF8330910508F091C0880FF1
:10246000991FFC01E85DFE4F0190F081E02D89E0AD
:1024700090E08FCF82E190E0E6EDF1E08ACF8091AD
:102480004C02882309F466CF853009F463CF80912C
:10249000E80083FD5FCF8091E80082FD8ECF8091C0
:1024A000E80080FF84CF9091F3008091F200211525
:1024B000310519F08830910550F041E0089709F096
:1024C00040E08091E8008E778093E80070CF4491DF
:1024D0004093F1003196215031090196E8CF8038C0
:1024E00009F04EC08091E800877F8093E8008091DA
:1024F000BC018093F1009FCE811142C01091C001B8
:102500001230F0F58091E800877F8093E800109307
:10251000BC010E948009112311F084E005C0809164
:10252000E30087FDFACF81E080934C0242E061EC4A
:1025300081E00E94240A42E261EC84E00E94240AC5
:1025400042E261EC82E00E94240A42E260EC83E015
:102550000E94240A80914C0213C08091C0018130F6
:1025600079F481E0933009F080E080933102109299
:10257000E9008091E800877F8093E8000E9480094D
:102580008091E80083FF0AC08091E800877F8093F4
:10259000E8008091EB0080628093EB00AA960FB672
:1025A000F894DEBF0FBECDBFDF91CF911F9108958C
:1025B0000F931F93CF93DF938B01D82FC92F0E94C6
:1025C000B807A8016D2F7C2F88E090E0DF91CF91B4
:1025D0001F910F910C944825E6EAF2E083E0808396
:1025E00011828FEF82838383148263E070E08FEF28
:1025F0009FEF0C94D812CF93DF9300D000D0CDB7CB
:10260000DEB78091AA02833018F48F5F8093AA020C
:102610008091A6029091A702A091A802B091A90270
:1026200089839A83AB83BC83BC01CD010F900F904B
:102630000F900F90DF91CF910C94D812CF93DF932E
:1026400000D000D0CDB7DEB78091AA02882319F060
:1026500081508093AA028091A6029091A702A09136
:10266000A802B091A90289839A83AB83BC83BC0181
:10267000CD010F900F900F900F90DF91CF910C94A0
:10268000D8125F926F927F928F929F92AF92BF9279
:10269000CF92DF92EF92FF920F931F93CF93DF932E
:1026A00000D000D000D00F92CDB7DEB7182F762E15
:1026B000042F622E9091A60290FF83C0E92FE69529
:1026C000AE2FB0E0A25DBE4F8C918093A4029E7F9E
:1026D0009230C9F59E012F5F3F4F812F0E9417074F
:1026E0004B8169818A810E94350D1093A7027092F7
:1026F000A8020093A902662009F463C08091A60293
:102700009091A702A091A802B091A9028C839D8309
:10271000AE83BF83BC01CD0127960FB6F894DEBF10
:102720000FBECDBFDF91CF911F910F91FF90EF9022
:10273000DF90CF90BF90AF909F908F907F906F90E1
:102740005F900C94D812823019F40091A902CDCF79
:10275000863019F41091A702C8CF8930D9F3893196
:1027600021F6E9518E2F8170582EE695F0E0E05E5B
:10277000F94FA590B490BB2481EFE82E81E0F82EAC
:10278000D12CC12C94E1892E912CC601B4010E9458
:102790008E24812F511013C0860F9701402F672D73
:1027A0000E941707CA0CDB1C93E0E90EF11CADE296
:1027B000EA16A2E0FA0649F70E94430B96CF861B61
:1027C000ECCF27960FB6F894DEBF0FBECDBFDF91DA
:1027D000CF911F910F91FF90EF90DF90CF90BF901E
:1027E000AF909F908F907F906F905F900895E6EAF2
:1027F000F2E0818121E043816281885F0C94411382
:10280000E6EAF2E0818121E04381628188500C9404
:102810004113E6EAF2E0628128E0620F08F46FEF0C
:1028200021E0438181810C944113E6EAF2E0628168
:1028300028E0621B08F460E021E0438181810C9470
:102840004113E6EAF2E0438128E0420F08F44FEF3B
:1028500021E0628181810C944113E6EAF2E0438138
:1028600028E0421B08F440E021E0628181810C9461
:10287000411369EE7EEF90E080E00E94542560E015
:1028800082E090E00E94362560E083E090E00E94C4
:1028900036251092AD0260E084E090E00E9436257B
:1028A00060E082E290E00E94362560E085E090E002
:1028B0000E94362560E086E090E00E9436256FEFAA
:1028C00087E090E00E94362540E050E0BA0188E0C1
:1028D00090E00E94482560E08DE090E00E9436255F
:1028E00040E050E0BA0188E190E00E94482560E0B5
:1028F00087E190E00E94362540E050E0BA018CE18B
:1029000090E00E94482570E060E080E290E00E9444
:10291000542540E050E0BA0188E190E00E9448254B
:1029200080E00E94E50E0E940D0F40E050E0BA01E9
:102930008FE090E00E94482540E050E0BA0183E13A
:1029400090E00C94482590E080E00E943025893E7C
:102950009E4F11F40C942A0F80E008954F925F92DD
:102960006F927F928F929F92AF92BF92CF92DF929F
:10297000EF92FF920F931F93CF93DF93CDB7DEB704
:1029800062970FB6F894DEBF0FBECDBFFE01319641
:1029900082E1DF011D928A95E9F793E5E92E91E046
:1029A000F92E8F012CE5622E21E0722E2F01AA2430
:1029B000A394B12C47E6842E41E0942EF701819137
:1029C0007F018F3F09F445C0F894E82FE295EF703E
:1029D000F0E021A18F70A50102C0440F551F8A9518
:1029E000E2F7CA01922F982B91A392A18095892397
:1029F00082A3789400C0ECE5F1E021E030E0D12C36
:102A0000C12C41914F3F09F468C0A42FA295AF702B
:102A1000A05EB0E08C9190E04F7002C095958795D4
:102A20004A95E2F780FD59C0C901C82AD92A220F68
:102A3000331F8E169F0629F7F701319780818F3F4C
:102A400011F00E94FD0650EA5A95F1F7D801CD9297
:102A5000DC920E5F1F4F6E147F0409F0AFCF42E18E
:102A600050E0B20186E692E00E9477259C0111E0D9
:102A7000892B09F410E0232B99F182E1F201A6E6FB
:102A8000B2E001900D928A95E1F781E080935302C4
:102A90000E94150990935202809351022091510295
:102AA000309152024FB7F89480914D0290914E02AE
:102AB000A0914F02B09150024FBF821B930B02971F
:102AC00098F082E1E6E6F2E0A4E5B2E001900D9232
:102AD0008A95E1F71092530207C080E090E0A5CFFD
:102AE000809153028111DACF812F62960FB6F8944C
:102AF000DEBF0FBECDBFDF91CF911F910F91FF9031
:102B0000EF90DF90CF90BF90AF909F908F907F908D
:102B10006F905F904F9008956091A602669570E067
:102B20004BE050E083E091E00E946A25892B19F484
:102B300081E08093A5020E9415099093330280934F
:102B400032020895CF93DF9300D000D0CDB7DEB727
:102B50009091A60290FF45C08823E1F18532E0F50F
:102B60008F77880F9091A6029170892B8093A6028F
:102B7000662381F08091A6029091A702A091A802FD
:102B8000B091A90289839A83AB83BC83BC01CD0138
:102B90000E94D8126091A602669570E04BE050E06A
:102BA00083E091E00E946A25892BC1F01092A50272
:102BB00081E08093350220E04091A9026091A80253
:102BC0008091A7020F900F900F900F90DF91CF91FF
:102BD0000C94411381E0C5CF84E2C3CF0E948C15D1
:102BE000E7CF0F900F900F900F90DF91CF91089546
:102BF0008091A60286958F5F853208F081E061E0C2
:102C00000C94A2159091A60296958FEF890F9130A2
:102C100009F484E261E00C94A2159091A60290FF61
:102C200007C09695981720F0961710F40C94F81595
:102C300061E00C94A2153F924F925F926F927F9247
:102C40008F929F92AF92BF92CF92DF92EF92FF92BC
:102C50000F931F93CF93DF93CDB7DEB728970FB6AF
:102C6000F894DEBF0FBECDBF7C01DC019C911196B4
:102C70008C91119713962D913C91232B21F0892350
:102C80008F3F09F09EC528960FB6F894DEBF0FBEA1
:102C9000CDBFDF91CF911F910F91FF90EF90DF900B
:102CA000CF90BF90AF909F908F907F906F905F90EC
:102CB0004F903F900895980122513F4520313105B2
:102CC00008F02CC58FEF93E00E94222502513FE3CC
:102CD000832E33E0932E8823A1F18091AF02877079
:102CE00091F2D70112968C91882369F28091B102FA
:102CF00082FDC9CF82E028960FB6F894DEBF0FBEE2
:102D0000CDBFDF91CF911F910F91FF90EF90DF909A
:102D1000CF90BF90AF909F908F907F906F905F907B
:102D20004F903F900C9459088114B4E09B06A9F28F
:102D3000C4010E942225811101C00150EFEF8E1ABB
:102D40009E0A0111F1CF80911B0190911C01A0916D
:102D50001D01B0911E0189839A83AB83BC834424F7
:102D600043942AE0322E84010F5F1F4FC4010E945A
:102D7000222589831A82882309F4AFCF9FEF980F09
:102D8000933010F58A834982F2E08F0E911CC801BE
:102D90000E9422258B83882309F49FCF8E010F5F29
:102DA0001F4FD8012C912223F1F211969C9111977B
:102DB000213009F045C012968C91913039F40E5FA4
:102DC0001F4F0E94B50A08C04801E8CF923039F47D
:102DD0000E5F1F4F0E94AB080F5F1F4FE2CF933073
:102DE00029F40E5F1F4F0E940408F6CF943019F0AB
:102DF0000F5F1F4FF1CF0E5F1F4F20E030E0B80193
:102E00006F5F7F4FF80141818053990B8A309105A4
:102E100060F02115310501F38FE99FE00197F1F78B
:102E200000C0000021503109F4CF329EF001339EE2
:102E3000F00D11249C012E0F3F1F842F8B01DFCF3B
:102E4000E22FF0E0E959F84F5490822F869586954D
:102E5000869590E0FC01E95AF84FE4912770F0E084
:102E6000022E02C0F595E7950A94E2F73F01A1E032
:102E70006A227724FC01E95BF84FA490B12C022E62
:102E800002C0B594A7940A94E2F7B1E0AB22BB2448
:102E9000FC01E95CF84FC490D12C02C0D594C794D2
:102EA0002A95E2F7E1E0CE22DD246114710419F0E5
:102EB00081EE0E94AB08A114B10419F086EE0E94C5
:102EC000AB08852D0E94B50AAB2819F086EE0E944A
:102ED0000408672819F081EE0E940408CD2809F43F
:102EE0007BCF8CE26ECF81E00E9442080E94190ADB
:102EF000F4CE81E00E944D08F9CF82E0F5CF053F86
:102F0000BCE51B07D1F027E245EE66EE063FECE597
:102F10001E0741F027E245EE64EE043FFCE51F0783
:102F200009F021C40E94D40AD8CE27E245EE65EE0E
:102F3000F9CF26E241EE60EEF5CF26E241EE62EEF9
:102F4000F1CF01368DE5180709F422C48091AB0258
:102F50008272063D2CE5120708F0D0C0023C3CE529
:102F6000130708F4D6C0F801E35CFC45E331F10532
:102F700008F044C1E057FA4D0C94D824F801E3500E
:102F8000FC458091B0028160E331F10528F5ED55F3
:102F9000FA4D0C94D8240330BDE51B0778F40A3FA2
:102FA000ECE51E0708F404C4F801EB5FFC45E830CB
:102FB000F105E8F4EA54FA4D0C94D82401361D4585
:102FC00009F0F6C39091B002892F8F7E94FF806143
:102FD00003C08091B00282608093B002E9C3809107
:102FE000B0028460F9CF8091B0028860F5CF809103
:102FF000B10281608093B102DBC38091B102826033
:10300000F9CF8091B0028061E7CF8091B0028062F9
:10301000E3CF8091B0028064DFCF0E94FF0F8091E8
:10302000B0028068D9CF8091B0028C60D5CF8091FA
:10303000B1028360DFCF8091B0028E7FCDCF8091CF
:10304000B0028D7FC9CF8091B0028B7FC5CF8091B8
:10305000B002877FC1CF8091B1028E7FCBCF8091AC
:10306000B1028D7FC7CF8091B0028F7EB5CF8091A6
:10307000B0028F7DB1CF8091B0028F7BADCF0E9427
:10308000FF0F8091B0028F77A7CF8091B002837F2E
:10309000A3CF8091B1028C7FADCF8091B00282FB33
:1030A000992790F921E0922790FB82F990FB83F910
:1030B00093CF8091B102982F909591708E7F892B3C
:1030C00090FB81F997CF0E94FF0F9091B002892F5A
:1030D00097FB87F9805880CF61E08EE090E00E94F6
:1030E000362566C360E0F9CF8091A302811104C048
:1030F00089E20E94A40492C385E3FBCF0D3510073B
:1031000009F4EBCD0A35EDE51E0709F417C108F007
:10311000F3C001152CE5120709F400C10E3D1C4552
:1031200009F409C1F7018281C080D180882309F4A4
:1031300009C1C6010E94760F182F682FC6010E9490
:103140004304B601812F0E94690F0E9478058C010B
:10315000D7011296BC9012971596AC90A2949FE05E
:10316000A9228091AF028770C1F0CB2CBB20B1F0B7
:10317000812F807F803421F080E2800F883068F0DA
:103180008091B10282FD09C082E00E9459088091BD
:10319000AF028770CC24C3948111C12CD12ED2945C
:1031A0008FE0D822B8E0DB1609F4CFC1BD1508F4D2
:1031B0000DC1E3E0ED1508F4CAC0812F807F1F70B8
:1031C000F1E0FD1508F016C1803211F01295107F64
:1031D000002309F445C1013009F47FC1BB2009F483
:1031E00089C1AA2009F47FC1D70115968C91159742
:1031F00080FF15C18F7015968C9375C18091A602C2
:1032000080FF21C08E7F8093A6028091A6029091BC
:10321000A702A091A802B091A9028D839E83AF83DB
:10322000B887BC01CD010E94D8121092A5029FEF71
:10323000A0E7B2E09150A040B040E1F700C000002C
:103240000E94430B4ACD81608093A60261E086957F
:103250000E94A21542CD42E056E168EF75E10E945E
:10326000C7073BCD48EF55E162E076E1F8CF40E09B
:1032700054E167EF73E1F3CF47EF53E160E074E1AE
:10328000EECF45E154E169E074E1E9CF49E054E172
:1032900065E174E1E4CF4DE254E161E274E1DFCF36
:1032A00041E254E16DE274E1DACF4EE153E16BEFBC
:1032B00072E1D5CF4BEF52E16EE173E1D0CF61E027
:1032C00081E0C6CF65E082E00E940D1606CD68E081
:1032D00086E0FACF6EE089E0F7CF64E18FE0F4CFCB
:1032E00067E185E1F1CF61E088E1B2CF62E289E197
:1032F000EBCF61E083E2ACCF0B358DE5180701F130
:103300000C351D4509F00ECF8091B10282FB882754
:1033100080F991E089270E946F0E04CF0E94FF0F71
:10332000AFEFB4E3ECE0A150B040E040E1F700C003
:1033300000000E94C90D0E943914CFCC81E0EBCF70
:1033400080E0E9CFC6010E947104182FFACE24E074
:10335000D21609F4E0C0AD2DA850BB0B149720F491
:103360000E94CC070E943D04CC20A9F08091AF02BE
:1033700080FD11C0F70112828595859585950E9483
:103380004208C7010E941B168091AF028595859562
:1033900085950E944D0860E0C70128960FB6F89405
:1033A000DEBF0FBECDBFDF91CF911F910F91FF9078
:1033B000EF90DF90CF90BF90AF909F908F907F90D5
:1033C0006F905F904F903F900C94A50F39E0D3160B
:1033D00009F42BC186E08D0D8F70823008F0BBCFD1
:1033E000023F09F031C1812F8F71B1102AC10E94B3
:1033F0004208B1CF882311F01295107FBB20B9F09D
:10340000112369F080E2800F883010F0011109C0AB
:103410008091AB02812B8093AB020E94DF04802F4E
:103420002FC08091B202812B8093B202F6CF802F01
:103430000E940408112309F48ECF80E2800F8830A7
:1034400010F0011104C0812F0E94D10406C0109514
:103450008091B20281238093B2020E94DF047BCF6D
:103460002091B10222FF16C0BB2069F0112339F070
:103470008091AB02812B8093AB020E94DF0480E03D
:103480000E94AB0868CF80E00E940408112309F471
:1034900062CFD9CFBB20A1F09091AC02812F892BB4
:1034A000A11003C00E94240556CFA1E0AA12FACFB2
:1034B00022FD51CF981709F44ECF8093AC024BCF29
:1034C000A11006C00E94D904812F0E942E0543CF6F
:1034D000B1E0AB1609F43FCFF5CFBB2031F0E5E00A
:1034E000EA1508F438CF812FDDCFF4E0FA1508F49F
:1034F00032CFEACFAA2041F3093349F4BFEFE7EE18
:10350000F3E0B150E040F040E1F700C00000802F50
:103510000E94040820CF812F86958695837061F0E4
:10352000813009F018CFC8019370B11002C090E04B
:1035300080E00E94EE070FCFC8019370B11002C067
:1035400090E080E00E94D80706CF812F8370A1F51C
:10355000B11001CF802F829586958770880F880FD4
:10356000402F4F70082E01C0440F0A94EAF7202F15
:10357000207104FF07C02FE030E001C0220F8A95C0
:10358000EAF72095169516951370123081F0822F68
:10359000842B133031F08091AD02113029F0242BAF
:1035A00082230E943A08D7CE842B822BFACF242B79
:1035B0008091AD028227F5CFBB2061F110FFCBCE09
:1035C000802F829586958770880F880F402F4F70C7
:1035D000082E01C0440F0A94EAF7202F207104FF3F
:1035E00007C02FE030E001C0220F8A95EAF720954E
:1035F000169516951370123099F0822F842B133084
:1036000031F08091AE02113041F0242B82230E94D0
:103610003E08A1CE11FF9FCED3CF842B822BF7CFB4
:10362000242B8091AE028227F2CF1F70BB2029F09D
:10363000812F0E944208802F35CF802F0E942E05B7
:10364000812F0E944D0887CE033F60F4003FB9F000
:10365000013F81F0BB2009F451C0A110E0CE812FC1
:103660008F71C5CE033F09F1043FA1F78091B102EC
:1036700082FF26C0812F8F71BB2019F3B8CEBB20EB
:1036800079F024E02A1508F466CE1F7181E090E0FD
:1036900001C0880F1A95EAF79091AE028927B7CF3B
:1036A00035E03A1508F457CEF0CF80E0BB2009F49E
:1036B000AECF1F7181E001C0880F1A95EAF7A7CF3E
:1036C000BB2089F01F71812F0E9442088091B102B6
:1036D00082FD07C0A8E01A9FC00111248360809377
:1036E000AF02812F84CE81E00E945908B1E0BA1563
:1036F00008F031CE82E00E9459082DCEAA2059F060
:10370000093309F004CFEFEFF7EE23E0E150F0408A
:103710002040E1F7FACE812F8F7193CF0031FFE582
:103720001F0709F4E0CB01312FE5120709F4E5CBBF
:10373000033FFCE51F0709F4FCCB08F0E0CB083D94
:103740003CE5130709F4F1CB28E241E0093D9CE593
:10375000190709F4ECCB26E241EE61EE073DACE53A
:103760001A0709F4DFCB882309F441C01092A202A2
:1037700003302DE5120708F0E4CB0A3F3CE51307C0
:1037800038F4980122503C452431310508F049C0F5
:103790000E941C0F9093B1028093B00206319CE509
:1037A000190708F0F8CB0230ACE51A0708F0E6CBB1
:1037B0008091B0029091B1020E94620E0E94FF0FB0
:1037C0008CCA61E0C7010E94A50F8C01D701129637
:1037D0008C91811170CA00313FE5130709F489CB40
:1037E00001319FE5190709F0A3CF82E083CB0631B1
:1037F0001C4509F097CC9091AB02882309F474CC56
:10380000892F8A7A91E009F490E09093A30269E20B
:10381000811165E388E991E00E9475080E94DF0448
:103820005CCA0631ECE51E0731F390CB1F93CF93B2
:10383000DF938091EA02807FA9F48091E7028823D8
:1038400089F08091B402C091B3027091E502609159
:10385000E602A091E802B091E902D62FD72316E044
:10386000C81304C0DF91CF911F91089590E0109785
:1038700011F0DF3F19F401968770F2CF189F900185
:10388000199F300D1124F901EB54FD4F4181641350
:10389000F2CF40814713EFCF42814111ECCF4381FA
:1038A00054814A1B5B0B483C510528F78091EA0282
:1038B0008F7080618093EA02F901E654FD4F8081A8
:1038C0008F708061808385EE92E00E941B16DF91ED
:1038D000CF911F910C949A048F929F92AF92BF92B6
:1038E000DF92EF92FF920F931F93CF93DF93CDB7A9
:1038F000DEB72B970FB6F894DEBF0FBECDBF8C019D
:1039000085E0F801DE01179601900D928A95E1F7A6
:10391000F801E280A380B48085EE882E82E0982EA4
:103920009091E5028091E6022091E8023091E9024F
:103930002115310529F0482F49234F3F09F028C1AF
:10394000EE2009F433C1F801808191810E94D20FE9
:10395000F82E882309F42AC186E0F801A5EEB2E02A
:1039600001900D928A95E1F70E94161C21C0D0901B
:10397000EA024D2D407F283C310508F0A8C0F8012F
:1039800021814111C3C0FE2C281325C080818913D9
:1039900022C0E11020C08D2D8F7080618093EA02DB
:1039A00085EE92E00E941B168091EA02F801858361
:1039B0008F2D2B960FB6F894DEBF0FBECDBFDF91D3
:1039C000CF911F910F91FF90EF90DF90BF90AF903C
:1039D0009F908F9008953F81AB2829F0822F8323F9
:1039E0008F3F09F090C080E0F82FF170DF2EE0915A
:1039F000B4024091B30256E080FD1CC0EE20C1F23B
:103A00008091EA0281608093EA02F12CD1CF8E2F5F
:103A100090E05E9FF0011124EB54FD4F618126136D
:103A200006C06081361303C06281E612E7CF0196BB
:103A3000E82FE770E413EBCF8F8198850E94C40FC5
:103A4000292F22952F70903260F0225F2F70223044
:103A500078F49F7051F0F8019581907F31F4D12C6A
:103A60000AC09F7011F08823D1F3805E8830B8F3CC
:103A7000C8010E941B16FD2C9BCFF801808191810B
:103A80000E94D20F882309F491C0EE2009F48EC061
:103A90008091EA02803270F08091E5029091E60216
:103AA0009A8389831B82BD82AC82DE82CE0101961D
:103AB0000E941B1686E0F801A5EEB2E001900D927F
:103AC0008A95E1F70E94161CFF24F39471CF4111EF
:103AD00032C085EE92E00E941B1686E0F40111923E
:103AE0008A95E9F792CFF801808191810E94D20FE7
:103AF0008111E0CF8091EA0281608093EA02C801DF
:103B00000E941B1655CF81E08E256ECF2813B5CFAE
:103B1000F80180818913B1CFE110AFCFD582C80100
:103B20000E941B1686E0F801A5EEB2E001900D920E
:103B30008A95E1F73DCFF801218182139ECFF801EC
:103B4000808189139ACFE11098CFD582C8010E9455
:103B50001B1686E0F40111928A95E9F729CFF80146
:103B600021818213C0CFF80180818913BCCF80915D
:103B7000EA0280FDD7CF982F907FA1F28583903FF6
:103B800071F2982F907F905F8F70892B8583C7CFBC
:103B9000F090E702A501421B530B9A01F110E7CE0A
:103BA000283C3105B0F6FE2CE110D9CFC8010E94A7
:103BB0001B168ACF1F93CF93DF93CDB7DEB76797DE
:103BC0000FB6F894DEBF0FBECDBF342F4B8B252F21
:103BD0005C8B962F6D8B7E8B8F8B4E895F896111ED
:103BE0001092B2021A8A3D872E879F87598B488B85
:103BF00086E0FE013D96DE01179601900D928A95B2
:103C0000E1F7CE0107960E946C1C882389F016E02C
:103C10008091B4029091B302891349C067960FB6A0
:103C2000F894DEBF0FBECDBFDF91CF911F910895F5
:103C300086E0FE013796DE01119601900D928A957D
:103C4000E1F79F8188852091B3024091B4026A8593
:103C50007B85672BE1F289238F3FC9F230E0C901F0
:103C60000196877099274817190671F40E94FF0F73
:103C70001092B3021092B40286E0E5EEF2E0DF01AA
:103C80001D928A95E9F7C3CF96E0929FD001939F4A
:103C9000B00D1124AB54BD4FFE01319601900D9231
:103CA0009A95E1F78093B3020E949A04B0CF819F66
:103CB000C00111248B549D4F0E946C1C882309F471
:103CC000ADCF8091B40290E00196877099278093E0
:103CD000B4029ECFCDB7DEB7A4970FB6F894DEBF7F
:103CE0000FBECDBF84B7877F84BF0FB6F894A89569
:103CF00080916000886180936000109260000FBE28
:103D000080E890E00FB6F894809361009093610092
:103D10000FBE85B7806885BF85B7806885BF8BEF8C
:103D200096E090939701809396010E94D0090E949B
:103D3000540A8091E20084608093E200789480913C
:103D40004C02882399F08091E9001091EC001795BE
:103D5000112717958F70182B1092E9008091E800B9
:103D600083FD0E9414101F701093E90082E084BD4F
:103D700093E095BD9AEF97BD80936E000E942A0F45
:103D8000811102C00E940D0F03E511E0ECE5EE2E5B
:103D9000E1E0FE2ED8018D918D018F3F11F00E9440
:103DA000FD06E016F106B1F70CE511E0F80181918E
:103DB0008F018F3F11F00E94FD06F1E007361F07CB
:103DC000A9F782E1E4E5F2E0DF01282F1D922A95B0
:103DD000E9F7E6E6F2E0DF011D928A95E9F70E9435
:103DE000A314811102C00E94391482E090E00E9465
:103DF0002225809339020E941C0F9093B102809378
:103E0000B0020E94AE14EFE7FEE33197F1F700C075
:103E100000000E94AE148091540285FF08C06FEF2D
:103E20007FEF90E080E00E9454250E94C90D83E05E
:103E300090E00E9422250E943A083F9A479A80917A
:103E40002D02811133C00E94A314811104C00E946D
:103E500039140E94EC1288E090E00E942A256093B9
:103E6000A6027093A7028093A8029093A9026E7F86
:103E700071F40E94EC1288E090E00E942A25609381
:103E8000A6027093A7028093A8029093A9020E94B1
:103E9000B8071092A5028091A60280FF04C060E0DE
:103EA00086950E94A21581E080932D028091B00238
:103EB00080688093B0028091B0029091B1020E941C
:103EC000620E8EE091E0909379028093780270E424
:103ED000272E80914C02FF24F39400E112E18530FB
:103EE00009F43EC10E94AE14882359F08FB7F894AC
:103EF00040914D0250914E0260914F0270915002DC
:103F00008FBF04E512E06AE3C62E62E0D62E1AA344
:103F100009A3512C412CE9A1FAA1A190B190FAA3D7
:103F2000E9A3D6016D907D906D016A147B04B1F117
:103F30006A247B24312CEE24E394F12C4D01B2E071
:103F40008B1A9108C3018E219F21892B09F1398297
:103F50004A8221E0C5018E219F21892B09F420E0AE
:103F60002B830E9415098160782F9D838C83498162
:103F70005A816B81892F0E94DA1DF4018081918121
:103F80008E259F25918380835394F7E0F515E0F00B
:103F90003394EE0CFF1C2BE03212D4CF439439E063
:103FA0004312B9CF511010C08FEF89838A831B82CF
:103FB0000E9415098160782F9D838C8349815A81E5
:103FC0006B81892F0E94DA1D8091A5028823D1F18F
:103FD0008091A402E091A602E695E81BE0933402EA
:103FE000823009F0DAC0F0E0ED5CF84FE491EE2E9B
:103FF000F12C35EAC32E3DE0D32E80913502882383
:1040000061F0109235020E9415099093330280935B
:10401000320210923702109236020E941509209146
:10402000320230913302821B930B8F3F9F4750F433
:104030002E0D3F1D309333022093320282E392E033
:10404000F60109950E94CC0790913802891731F04A
:104050000E94CC07809338020E943D0480914C025C
:10406000843009F036CF83E08093E9008091E80046
:1040700082FF2FCF8091E80090E085FF06C00E946C
:104080009F09882309F4EDC091E08091E8008B77C7
:104090008093E800992309F41CCFE981E150E331D2
:1040A00008F06FC1F0E0E254FA4D0C94D8248091EE
:1040B0004C02843009F442C080E00E943D0410921A
:1040C000A50280913002811116C0F09230028091D9
:1040D000A602982F917090932F028E7F8093A60254
:1040E000FFEF20E732E0F15020403040E1F700C020
:1040F00000000E94430B10922E0248E150E00FB6E0
:10410000F894A895409360000FBE2092600083B79A
:10411000817F846083BF83B7816083BF78948895F3
:1041200083B78E7F83BF0FB6F894A8958091600007
:10413000886180936000109260000FBE8091310210
:10414000882371F00E94AE14E4E5F2E08191919130
:10415000892B09F04AC286E692E08E179F07B1F7D5
:1041600080914C02853009F4A2CF0E94FF0F0E947B
:10417000CC070E943D041092300280912F028823C8
:1041800049F08091A60281608093A60260E0869546
:104190000E94A2150E948C15A5CE853109F44DC050
:1041A00080F4893091F18F3009F43BC0863011F1F1
:1041B00040EDE42E47E0F42E56E1C52E57E0D52E13
:1041C0001CCF833209F444C064EFE62EFF24F3943D
:1041D00078E7C72E7BE0D72E843209F40ECF98E221
:1041E000E92EF12C21E9C22E2CE0D22E883109F4DF
:1041F00004CFDECFF0E0E05DF84FE491EE2EF12C3D
:1042000089EBC82E8DE0D82EF8CEE695F0E0E35D80
:10421000F84FE491EE2EF12CB0EBCB2EBBE0DB2E71
:10422000ECCEE695F0E0E65DF84FE491EE2EF12C51
:10423000AAEDCA2EABE0DA2EE0CEF0E0E95DF84F51
:10424000E491EE2EF12CF3E4CF2EFCE0DF2ED5CE60
:10425000E5E2F7E0E590F490E6E4CE2EEDE0DE2E28
:10426000CCCE30E2C32ED12C9E012F5F3F4F79017F
:104270008091E80085FD0AC08091E8008B778093EB
:10428000E8000E949F09882399F3FECE8091F100F7
:10429000D7018D937D01B1E0CB1AD10849F7F4CE57
:1042A0001A8289E08B8323C08A81823009F4B3C1EA
:1042B000833009F442C0813009F063C08FB7F894AD
:1042C00020914D0230914E0240914F025091500288
:1042D00029A33AA34BA35CA38FBF69A17AA18BA1A9
:1042E0009CA10E94DE246B837C838D839E838091BE
:1042F0004C02843009F0EDCD8091E9001091EC0082
:104300001795112717958F70182B82E08093E9007D
:104310008091E80080FF0DC050E040E060E270E076
:10432000CE0101960E94EF098091E8008E7780937C
:10433000E8001F701093E900CCCDFE013196D80142
:104340008C9111969C910E5F1F4F928383833296BE
:10435000B2E006361B0799F7CACF8A81823089F40A
:104360002B813C814D815E8129A33AA34BA35CA3A1
:10437000CA01B9010E94DE2486E290E00E9436253F
:10438000B6CF8FEF8983B3CF4C816B818A810E9436
:10439000430F9827892798279E838D83A8CFED8088
:1043A000FE80FE24EF24FE248A810B8136E1039FE8
:1043B0008001112446EC849F000D111D11248C8175
:1043C00090E0880F991F080F191F6F2DC80187965D
:1043D0000E9436256E2DC8018896D0CF0E94840E8B
:1043E00086CF8A818238D1F1F8F4803831F1813872
:1043F00009F07DCF60E08B810E94A2159B818091A6
:10440000A602911123C08E7F8093A6021092A5026E
:104410005FEF80E792E0515080409040E1F700C0AC
:1044200000000E94430B63CF833809F060CF20E087
:104430004091A9026C818B8106C020E04B81609184
:10444000A8028091A7020E94411351CF81608093FE
:10445000A60260E086950E94A21549CF8B818093C9
:10446000AA0245CF8A818238D9F058F4803899F071
:10447000813809F03CCF8091A60280FF0FC086955D
:1044800011CF833809F033CF8091A7028B838091BD
:10449000A8028C832CCF8091A90204CF80E002CFA8
:1044A0008091AA02FFCE2091A6023091A7024091EE
:1044B000A8025091A90229A33AA34BA35CA3CA0165
:1044C000B9010E94D81213CF80E18A8310CF1A82DB
:1044D00081ECE8CECA80DB80DC24CD24DC248C8116
:1044E0007601E80EF11C8E010B5F1F4FC601815C47
:1044F0009C4FCE14DF0409F4FACE31ECC316D1047C
:1045000048F40E942225D8018D938D01BFEFCB1A6C
:10451000DB0AECCF80E0F7CF0A811B81102701274F
:104520001027FE0131966F018C817F01E80EF11C8E
:10453000C801815C9C4FCE14DF0409F4D8CE013C45
:10454000110528F4D60114966C910E9436250F5F50
:104550001F4FBFEFCB1ADB0AEBCF0E94FD0EC7CE79
:1045600084E0B3CFCA80DB80DC24CD24DC248C81C2
:104570007601E80EF11C8E010B5F1F4FC601879676
:10458000EC14FD0409F4B3CEE8E1CE16E3E0DE0658
:1045900048F40E942225D8018D938D01BFEFCB1ADC
:1045A000DB0AECCF80E0F7CF0A811B8110270127BF
:1045B0001027FE0131966F018C817F01E80EF11CFE
:1045C000C8018796EC14FD0409F491CE0831F3E09C
:1045D0001F0728F4D60114966C910E9436250F5FB0
:1045E0001F4FBFEFCB1ADB0AEBCF09BD19BD09B4D2
:1045F00000FEFDCF8091D8008F7D8093D800809100
:10460000E00082608093E0008091E00081FDFCCFBB
:104610000E94FF0FA5CD86E290E00E9422251B821A
:104620001C821D828E8363CE1F921FB61F9211249F
:104630008F939F93AF93BF9380912E02811113C0EC
:1046400080914D0290914E02A0914F02B091500284
:104650004196A11DB11D80934D0290934E02A093EF
:104660004F02B0935002BF91AF919F918F911F90D5
:104670001FBE1F90189578941F921FB61F92112489
:104680008F939F93AF93BF9380914D0290914E0271
:10469000A0914F02B09150020196A11DB11D8093CF
:1046A0004D0290934E02A0934F02B0935002BF91DF
:1046B000AF919F918F911F901FBE1F9018951F92D1
:1046C0000F920FB60F9211242F933F934F935F9346
:1046D0006F937F938F939F93AF93BF93EF93FF93CA
:1046E0008091E10082FF09C08091E20082FF05C055
:1046F0008091E1008B7F8093E1008091DA0080FF60
:1047000024C08091D80080FF20C08091DA008E7F85
:104710008093DA008091D90080FF9BC080E189BD41
:1047200082E189BD09B400FEFDCF81E080934C0297
:104730008091BD01811109C00E94D0090E94540AD4
:104740008091E20084608093E2008091E10080FF2C
:1047500017C08091E20080FF13C08091E2008E7F3D
:104760008093E2008091E20080618093E20080917A
:10477000D80080628093D80019BC85E080934C02F9
:104780008091E10084FF29C08091E20084FF25C070
:1047900080E189BD82E189BD09B400FEFDCF809131
:1047A000D8008F7D8093D8008091E1008F7E809328
:1047B000E1008091E2008F7E8093E2008091E20030
:1047C00081608093E2008091BC01882309F447C096
:1047D00084E080934C0280914C028091E10083FF41
:1047E00027C08091E20083FF23C08091E100877F92
:1047F0008093E10082E080934C021092BC01809192
:10480000E1008E7F8093E1008091E2008E7F8093B3
:10481000E2008091E20080618093E20042E060E08B
:1048200080E00E94240A8091F00088608093F0006C
:10483000FF91EF91BF91AF919F918F917F916F9178
:104840005F914F913F912F910F900FBE0F901F904E
:10485000189519BC10924C021092BD0176CF809130
:10486000E30087FD02C081E0B4CF83E0B2CF1F92A6
:104870000F920FB60F921124FF920F931F932F9355
:104880003F934F935F936F937F938F939F93AF93D8
:10489000BF93CF93DF93EF93FF9309EE10E0F801FE
:1048A0008081C091EC00C795CC27C7958F70FC2EF6
:1048B000F82A1082C0EFD0E08881877F88837894BF
:1048C0000E941410F8011082888188608883CF2D9F
:1048D000CF70C083FF91EF91DF91CF91BF91AF91E6
:1048E0009F918F917F916F915F914F913F912F9108
:1048F0001F910F91FF900F900FBE0F901F90189572
:1049000087FB082E062687FD819567FD61950E942D
:1049100016250EF4919507FC81950895AA1BBB1BE3
:1049200051E107C0AA1FBB1FA617B70710F0A61BAF
:10493000B70B881F991F5A95A9F780959095BC01D0
:10494000CD01089597FB072E16F4009407D077FD4C
:1049500009D00E948E2407FC05D03EF490958195E5
:104960009F4F0895709561957F4F0895A1E21A2E8B
:10497000AA1BBB1BFD010DC0AA1FBB1FEE1FFF1F03
:10498000A217B307E407F50720F0A21BB30BE40B53
:10499000F50B661F771F881F991F1A9469F760959A
:1049A0007095809590959B01AC01BD01CF01089554
:1049B000EE0FFF1F0590F491E02D099469279627CB
:1049C000692778278727782708950E94ED243323C5
:1049D00012F48A1B9B0B0C94FE24A29FB001B39F80
:1049E000C001A39F700D811D1124911DB29F700DF8
:1049F000811D1124911D08950E94ED24B7FF089593
:104A0000821B930B08950E94ED24A59F900DB49FE7
:104A1000900DA49F800D911D11240895B7FF0C9453
:104A200003250E940325821B930B0895991B79E0AF
:104A300004C0991F961708F0961B881F7A95C9F72E
:104A400080950895F999FECF92BD81BDF89A992776
:104A500080B50895A6E1B0E044E050E00C945C25F8
:104A6000A8E1B0E042E050E00C945C25262FF999D3
:104A7000FECF92BD81BDF89A019700B4021639F0BD
:104A80001FBA20BD0FB6F894FA9AF99A0FBE08958E
:104A90000396272F0E9437250E943625252F0E9436
:104AA0003725242F0C9437250196272F0E94372570
:104AB0000C943625DC01CB01FC01F999FECF06C030
:104AC000F2BDE1BDF89A319600B40D9241505040CC
:104AD000B8F70895FC014150504030F0019006169F
:104AE000D1F73197CF010895882799270895FB01C1
:104AF000DC0104C08D910190801921F44150504097
:104B0000C8F7881B990B0895F894FFCFF7101F1171
:104B1000C0121F11C01252117311C0126F127C12F9
:104B20002B19321937193C19411946194B195019CB
:104B300055195A195F19621967196A196D1970198F
:104B4000731976197919E917EF17F3170118051872
:104B500009180D1813181B181F18231827183318B5
:104B600037183B183F18451863184D18FD172B18B8
:104B70002F181718491859186C18721850215421F9
:104B8000AD21C421CF21EE21F12132225322C121B6
:104B9000C121642267226A228C22AD22B022B22275
:024BA000D4221D
:104BA20001010201191A1B1C1D1E1F2021222109AD
:104BB200ED0D24095A0E5E0E250901000000004089
:104BC200226D3B011901AC008D01A601C601000155
:104BD200020202020606060909090909090F0F0F56
:104BE2000F0F0F151515181919191919191919195E
:104BF20019232490919293959496973437333231B6
:104C020030C6F1F4F5F6F7E200E900EA00B500B6C5
:104C120000B700CD008301CC008A019201940121EA
:104C220002230224022502260227022A02B300B42A
:064C3200006F007000009D
:00000001FF
