:100000000C949A030C94E1030C94E1030C94E10327
:100010000C94E1030C94E1030C94E1030C94E103D0
:100020000C94E1030C94E1030C9455260C942D27B9
:100030000C94E2180C94E1030C94E1030C94E1039A
:100040000C94E1030C94E1030C94E1030C94E103A0
:100050000C94E1030C9431260C94E1030C94E1031D
:100060000C94E1030C94E1030C94E1030C94E10380
:100070000C94E1030C94E1030C94E1030C94E10370
:100080000C94E1030C94E1030C94E1030C94E10360
:100090000C94E1030C94E1030C94E1030C94E10350
:1000A0000C94E1030C94E1030C94E1030501098035
:1000B000A101850319012AB700150126B700950192
:1000C00075108100C0050C0901A101850419012AE0
:1000D000A002150126A002950175108100C005013E
:1000E0000906A1018506050719E029E71500250184
:1000F0009508750181020507190029EF15002501F2
:1001000095F075018102050819012905950575010C
:100110009102950175039101C00660FF0961A1017B
:100120000962150026FF00952075088102096315F4
:100130000026FF00952075089102C005010906A15F
:1001400001050719E029E7150025019508750181CA
:10015000029501750881010507190029FF15002680
:10016000FF00950675088100050819012905950508
:1001700075019102950175039101C009025B0003AD
:100180000100A0FA09040000010301010009211186
:100190000100012240000705810308000109040154
:1001A00000020300000009211101000122220007C2
:1001B0000582032000010705030320000109040252
:1001C000000103000000092111010001226D000758
:1001D0000584032000011201000200000008424BC8
:1001E000251202000102000120036B00620064007E
:1001F000360037006D006B0069006900720067000F
:100200006200200076003200000010034B00420024
:100210004400660061006E007300000004030904DE
:10022000165C1E001F002000210022002300240075
:100230002500260027002D002E002A004A002B0052
:1002400014001A000800150017001C0018000C000C
:10025000120013002F00300031004B003900040061
:100260001600070009000A000B000D000E000F0029
:1002700033003400000028004E00E1001D001B0088
:100280000600190005001100100036003700380084
:10029000E500000052004D00E000E300E200000035
:1002A00000002C0000000000E6000000015150009A
:1002B000000051004F00165C3A003B003C003D003E
:1002C0003E003F0040004100420043004400450022
:1002D0004C004A000100C25CC35CC55CC65CC75CE4
:1002E000C85CC95CCA5C0100460047004800005C6D
:1002F0004B000100CB5CCC5C01000100010001005F
:10030000010001000100010001000000DE5C4E0060
:10031000E1000100010001000100010001000100F5
:1003200001000100010001000000A900A800010077
:1003300001000100000000000100000000000100B9
:1003400000000100AC000000AA00AB0001000100A9
:100350000100010001000100010001000100010095
:100360000100010001000100010001000100010085
:100370000100010001000100010001000100010075
:100380000100010001000100010001000100010065
:100390000100010001000100010001000100010055
:1003A0000000010001000100010001000100010046
:1003B0000100010001000100010001000100000036
:1003C0000100010001000100010000000000010027
:1003D0000000000001000000010001000000010019
:1003E0000100010001000100010001000100010005
:1003F00001000100010001000100010001000100F5
:1004000001000100010001000100010001000100E4
:1004100001000100010001000100010001000100D4
:1004200001000100010001000100010001000100C4
:1004300001000100010000000100010001000100B5
:1004400001000100010001000100010001000100A4
:100450000100010000000100010001000100010095
:100460000000000001000000000001000000010089
:100470000100000001000100009B8B7B00AB8A7A29
:1004800000AA9A7900A9998900A8988800A7978757
:1004900000A6968600A5958500A49484003C4C5C3B
:1004A000002C4D5D002D3D5E002E3E4E0030405034
:1004B00000314151002A3A4A002939490028384878
:1004C0000027374700263646002535560024455577
:1004D0000034445400AC9C8C00AD9D8D00AE9E8ECB
:1004E00000AF9F8F00B0A09000B1A19100324252A6
:1004F000002B3B4B01A9998901A8988801A79787F0
:1005000001A6968601A5958501A49484013C4C5CC6
:10051000012C4D5D012D3D5E012E3E4E012F3F4FC2
:10052000013040500033435301AB8A7A01283848E8
:100530000127374701263646012535560124455502
:1005400001AC9C8C01AD9D8D01AE9E8E01AF9F8F45
:1005500001314151013242520133435300B2A28171
:10056000019B8B7B012B3B4B012A3A4A01344454BB
:1005700001B1A19101B2A28101A3938300A393834E
:1005800000B3928200010101010101010101020297
:100590000202020202020203030303030303030431
:1005A00004040404040405050505050606060606FC
:1005B000070707070708080808090909090A0A0AB6
:1005C0000B0B0B0C0C0C0D0D0D0E0E0E0F0F0F1058
:1005D00010111111121213131414151516161717E2
:1005E000181819191A1A1B1B1C1D1D1E1E1F20204E
:1005F000212222232424252626272829292A2B2C98
:100600002D2D2E2F30313232333435363738393ABA
:100610003B3C3D3E3F404142434445464748494AB2
:100620004C4D4E4F50515354555658595A5B5D5E80
:100630005F616264656668696B6C6D6F707273751B
:1006400077787A7B7D7E8082838587888A8C8E8F7F
:1006500091939596989A9C9EA0A2A3A5A7A9ABADAD
:10066000AFB1B3B5B7BABCBEC0C2C4C6C9CBCDCF9B
:10067000D1D4D6D8DBDDDFE2E4E7E9EBEEF0F3F549
:10068000F8FAFDFF0000000000000000000000007C
:10069000000000000000000000000000000000005A
:1006A00000000000000000007E0F00D4FFFFFFC725
:1006B0000000007800000000000000002A2B280045
:1006C0000000000000000000000000000000002901
:1006D000000000002C1E3420212224342627252E41
:1006E000362D3738271E1F20212223242526333379
:1006F000362E37381F0405060708090A0B0C0D0EA5
:100700000F101112131415161718191A1B1C1D2F70
:100710003130232D350405060708090A0B0C0D0E90
:100720000F101112131415161718191A1B1C1D2F50
:100730003130354C11241FBECFEFDAE0DEBFCDBF24
:1007400004B603FE27C080910C0590910D05A09181
:100750000E05B0910F058730904BA740B04BD1F4F8
:1007600010920C0510920D0510920E0510920F05B7
:1007700014BE84B7877F84BF0FB6F894A895809184
:100780006000886180936000109260000FBEE0E01E
:10079000F8E3099525E0AEE8B2E001C01D92AC3067
:1007A000B207E1F712E0A0E0B1E0EEE6F4E502C046
:1007B00005900D92AE38B107D9F70E945C220C94D7
:1007C000D9290C940000E82F2FE0929FE00D11240E
:1007D0008E2F877041E001C0440F8A95EAF7E695B5
:1007E000E695E69583E0E89FF0011124EC55FB4F78
:1007F00030E020E070E05191DF011197CB01022E33
:1008000002C0969587950A94E2F7817081958527B5
:10081000842385278C932F5F3F4F2330310559F771
:100820000895E82F2FE0929FE00D11249E2F9770DE
:10083000E695E695E69583E0E89FF0011124EC55F6
:10084000FB4F50E040E080E0219130E0092E02C0F3
:10085000369527950A94E2F721703327042E01C0BC
:10086000220F0A94EAF7822B4F5F5F4F4330510506
:1008700059F708958091D5049091D404981301C03C
:1008800008958F5F8770FACF909117019923E1F057
:100890009091D10497FF18C0E82FE695E695E6956C
:1008A000803FF0F4F0E0E057FD4F877021E030E04A
:1008B000A90102C0440F551F8A95E2F7CA0180952D
:1008C0009281892382830895E2E9F2E0919189136C
:1008D00003C0DF0111971C9252E0E839F507B1F728
:1008E0000895982F90958091CC0489238093CC040F
:1008F00008958091CD0481111092CD0408958091C6
:10090000CC049091D304892B9091C204892B8093BD
:1009100090029091CD049923A1F0892B80939002AD
:1009200080911701882341F18091D10487FF24C071
:100930008EE1E2E9F2E090E0815000F591110E9431
:100940007904E091A204F091A3043097E1F0809142
:100950001701882359F08091D10487FF07C0809147
:1009600090028093910286E0809390020280F3814E
:10097000E02D80E992E0099486E0DBCF21912223EB
:10098000D9F29F5FD9CF0895882339F09091CC0494
:10099000892B8093CC040C947F040895882321F044
:1009A0000E9471040C947F0408959091D10492FFE9
:1009B00006C0282F28712830F9F4877F846093FFC0
:1009C00006C0282F28712831F1F4877E8461209198
:1009D000D20420FF06C0382F38713830D9F4877F11
:1009E000816021FF06C0282F28712831D1F4877E2D
:1009F000816194FD877E0895282F24712430F9F6B3
:100A00008B7F8860DCCF282F2471243101F78B7E07
:100A10008861DDCF382F3171313019F78E7F8860D2
:100A2000E0CF282F2171213121F78E7E8861E1CF1F
:100A3000CF93DF93EC01803E910509F45EC048F549
:100A40008133910509F4A1C088F48932910509F434
:100A500095C08A9709F4A0C0C130D10529F1CE0113
:100A60000497813A910508F054C01EC0893391055E
:100A7000E9F182389105D1F1C59709F478C0C83AF7
:100A8000D10508F090C0C53AD10530F3A497D064E1
:100A90000BC0843E910509F44FC050F4823E91058D
:100AA000D9F1833E9105E9F1CE01DF91CF9108950F
:100AB000863E910509F44BC0873E910509F44CC070
:100AC000811523E5920708F08BC0811532E5930765
:100AD00008F0FDC0C11580E5D80708F077C0C11542
:100AE00020E4D20760F2DF70D06ADECF8091D104BB
:100AF0008370D1F2C0EED0E0D7CF8091D10480FDD9
:100B000011C19091D20490FFCFCFC3EED0E084FF0B
:100B1000CBCFD0E0C0E0C8CF8091D10482FDF5CF2B
:100B2000C3CF8091D10482FD00C19091D20490FD89
:100B3000E1CF84FFB9CFEDCF8091D20481FFB4CF54
:100B40008091D104C7EED0E084FDE3CFADCF80919A
:100B5000D10483FDF7CFA8CF8091D10483FDE8C0F5
:100B60009091D20491FFE5CFC4EED0E09DCF80916B
:100B7000D10485FF99CFC9E2D0E096CF8091D1040E
:100B800085FF92CFC5E3D0E08FCF8091D10486FF5F
:100B90008BCFCAE2D0E088CF8091D10486FF84CF8A
:100BA000C1E3D0E081CFCF3BD10508F468C0C83E97
:100BB000D10528F4C03ED10508F4ABCF75CFCE01E6
:100BC0009A9581159F4108F0A4CF6ECFC11581E59C
:100BD000D80708F45FC0DC2FCC27C16FD06A64CF80
:100BE000811529E59207A0F5811538E5930708F0EE
:100BF00086C0C11585E5D807C8F4C11524E5D2071C
:100C000008F078C09E012370332781E090E002C095
:100C1000880F991F2A95E2F7C695C69530E2C39FC3
:100C2000E0011124C82BD92BDA683ECFCE019555AF
:100C30008F3F910511F008F06CCF8C2F0E94D504E6
:100C4000C82FD0E0DC2FCC27CC27DF71D0622CCF8F
:100C5000C1158AE5D80708F457C0CE019056811512
:100C6000904208F056CF8D2F8F710E94D50490E0EE
:100C7000982F882788279F718C2BEC01E7CFC85AC3
:100C8000D0E0CC0FDD1FC15ADD4F0990D881C02DB7
:100C9000D4640ACF9E0174E0369527957A95E1F7E2
:100CA00023708C2F86958695837030E2839FC001D8
:100CB0001124922BC37021E030E002C0220F331FB9
:100CC000CA95E2F7822B932BEC01DC68EDCE9C01F8
:100CD0002370332781E090E002C0880F991F2A9586
:100CE000E2F7C695C69520E2C29FE0011124C82B09
:100CF000D92BEBCFDC2FCC27C46FD06AD5CED82F21
:100D0000CC27C06FD06AD0CE8C2F8F700E94D504B4
:100D100034E0D695C7953A95E1F7CF709C2FEC015A
:100D2000D069C2CEC9E3D0E0BFCEC2EED0E0BCCE27
:100D3000C6EED0E0B9CE80E00895F894E82FE295B1
:100D4000EF70F0E041A18F7021E030E0B90102C006
:100D5000660F771F8A95E2F7CB01962F9095942323
:100D600091A392A1892B82A378940895AF92BF9208
:100D7000CF92DF92EF92FF920F931F93CF93DF9367
:100D8000262FD72EE82FF0E0EC57FA4F71110FC045
:100D90006491862FE62F7E2FDF91CF911F910F91C7
:100DA000FF90EF90DF90CF90BF90AF900895E72E27
:100DB000F12CE49186E0689F80011124CFEFD0E010
:100DC000C801BE010E945128AB0130E0220F331F41
:100DD00065E5649FC001659F900D1124281B390BA8
:100DE000922F990F920F9E012E193F09E29FD00179
:100DF000E39FB00D11246B2FD99E90011124232F56
:100E000033276E01C21AD30A9601E29F6001E39F65
:100E1000D00C11248D2D5E01A91AB108AE9C900151
:100E2000AF9C300DBE9C300D1124232F3327C21BE5
:100E3000D30BEC9F9001ED9F300D112443305105F1
:100E4000C1F00C3F93E0190768F441305105A9F057
:100E500042305105B1F00F3F110508F09CCF8B2FA8
:100E6000632F99CF4430510579F046305105B9F3DD
:100E700092CF6D2D8E2FEB2F8ECF6E2FED2D8B2FD2
:100E80008ACF832F6E2FF7CF8E2FE32F84CF9C0135
:100E900090E080E0269F812D369F800D911D1124CA
:100EA00008959C018230910508F408959FEF213E3A
:100EB0008EE1380740F4C90145E0969587954A953B
:100EC000E1F798E0980F61E0E62FE90FFF27FF1F99
:100ED000AF0155954795842F449FF001459FF00D34
:100EE000F00D11242E173F0738F49FEF940F96173B
:100EF00058F78FEF860F08954F3FE9F361E0640FD5
:100F0000F6CF409107015091080125E038E0429F5B
:100F1000C001439F900D529F900D1124875E994C04
:100F20009093080180930701890F0895982FE82F67
:100F300096FDE0952E2F2F7096FD2F5FE695E69596
:100F4000E695E670F0E0E15DFE4F8181829F802DA5
:100F5000212D112482958F702295207F822B208154
:100F6000820F97FD819580580895FC019B010097A1
:100F700019F4832F80780895AC0197FF04C04427AB
:100F80005527481B590BB901640F751F37FD0FC05A
:100F9000241B350BC901A5E0880F991FAA95E1F71D
:100FA0000E94652880E2861BF7FD81950895CB019C
:100FB00065E0880F991F6A95E1F7BA01621B730B10
:100FC0000E94652880E6EFCF1F93182F822FE42F11
:100FD000F0E0EE0FFF1FEE57FE4F2081322F24EE80
:100FE000329F312D1124412F50E0232F30E0245E19
:100FF0003F4F281B310937FF03C031952195310937
:1010000083E0220F331F8A95E1F7CA01821B930BFD
:101010009C0197FD20E0219F212D1124822F1F91FB
:101020000895622F0895E42FF0E0EE0FFF1FEE57B2
:10103000FE4F6081621B0895E42FF0E0EE0FFF1F6A
:10104000ED57FE4F6081621B0895322F50E0FA0188
:10105000EE0FFF1FED57FE4F9081905297FD919537
:10106000440F551FFA01EE57FE4F2081231B330B0F
:10107000290F311D97FD3A95620F0895EF920F9356
:101080001F9393E0099F80011124159507956E2DFC
:10109000600F1F910F91EF9008950F93CF93DF93FF
:1010A000D72FC82FB90147FD419528E330E0241B15
:1010B000310947FD3395229FA001239F500D500D0C
:1010C0001124669FC001679F900D900D1124840F1D
:1010D000951F0E945107982F990F692F680F600F75
:1010E0007D2F8C2FDF91CF910F9108950F93CF9388
:1010F000DF93D72FC82FBA01C9010E94B507682F07
:10110000600F7D2F8C2FDF91CF910F910895EF927B
:101110000F93CF93DF93D72FC82FBA01C9010E19B0
:101120000E94B507602F681B7D2F8C2FDF91CF9118
:101130000F91EF9008950F931F93522F10E0F80135
:10114000EE0FFF1FED57FE4FA081A052BB0B9D017C
:101150005203F001539FF00D1124000F111FD8010D
:10116000AE57BE4F2C912057330B4203D001439F03
:10117000B00D11249F012A0F3B1F37FF02C02158D9
:101180003F4F220F232F221F330B620F1F910F910E
:1011900008950F931F93522F10E0F801EE0FFF1FD9
:1011A000ED57FE4FA081A052BB0B9D015203F001F1
:1011B000539FF00D1124000F111FD801AE57BE4FE1
:1011C0002C912057330B4203D001439FB00D1124C3
:1011D0009F012A0F3B1F37FF02C0215C3F4F96E063
:1011E000359527959A95E1F7620F1F910F91089514
:1011F0000F931F93A42F10E0F801EE0FFF1FEE577F
:10120000FE4F9081905797FD9195000F111FF801A7
:10121000ED57FE4F00810052110B2003A001219FCA
:10122000500D112428E330E0291B310997FD339537
:101230001A2F1203F001139FF00D11244E0F5F1FA0
:101240009A01220F331F240F351F37FF02C0215888
:101250003F4F220F232F221F330B620F1F910F913D
:1012600008950C94F0160C943817E6ECF4E0248101
:1012700030E1230F08F42FEF24838091C5048160AF
:101280008093C5040895E6ECF4E0248130E1231B4B
:1012900008F420E024838091C50481608093C50414
:1012A0000895FA0181110994FB01FDCFE091A20498
:1012B000F091A304309721F00190F081E02D099482
:1012C00080E008952091E4023091E5022817390763
:1012D00071F09093E5028093E402E091A204F09112
:1012E000A304309721F00680F781E02D099408953A
:1012F0002091E2023091E3022817390771F09093B0
:10130000E3028093E202E091A204F091A3043097FB
:1013100021F00084F185E02D09940895882329F1B6
:101320009CEF980F913A20F40E9444040C947F049F
:1013300090E2980F983050F4877091E001C0990FB7
:101340008A95EAF7892F0E947104F0CF9BE5980FE8
:10135000933020F490E080E00C946209885A873141
:1013600020F490E080E00C947809089590E080E00B
:101370000E94620990E080E00E9478091092D304F4
:101380001092C2040C947F048093CE040C94B6098E
:101390008093CF040C94B60921E030E001C0220F05
:1013A0008A95EAF78091CF04822B0C94C80921E03A
:1013B00030E001C0220F8A95EAF720958091CF0492
:1013C00082230C94C8099091D0048095892380933E
:1013D000D004282F277091F4282F082E000C330BEF
:1013E0009217130659F09091D20492FD07C085958B
:1013F000859585950E94D7091092D00408959C0187
:10140000809117018823C1F08091D10487FF14C017
:10141000862F869586958695603FF8F4F901E80F4A
:10142000F11D677021E030E001C0220F6A95EAF7F4
:101430008281822B82830895F90132968FEF90E0AA
:101440004191641751F08F3F19F4411101C0892F68
:101450009F5F9630A9F78F3F09F40895280F311D3B
:1014600087FD3A95F90162830895CF93C82F8823A9
:1014700009F463C08CEF8C0F813AA8F580911701B5
:10148000882301F18091D10487FF1CC0EC2FE695E1
:10149000E695E695F0E0E057FD4F828190E04C2F15
:1014A000477021E030E002C0220F331F4A95E2F777
:1014B00082239323892B79F08C2F0E9444040E946D
:1014C0007F0409C0E2E9F2E08191C817A9F322E0A4
:1014D000E839F207C9F76C2F80E992E00E94FF0912
:1014E000CF910C947F0480E28C0F883068F4C77031
:1014F00021E030E001C0220FCA95EAF78091CC04C8
:10150000822B8093CC04ECCF8BE58C0F833038F4A6
:101510002C2F2452330BC901CF910C946209C85A65
:10152000C73158F4EC2FF0E0EE0FFF1FE15AFD4FEA
:1015300080819181CF910C947809CF910895CF93B8
:10154000DF9300D000D0CDB7DEB78FB7F8942091ED
:10155000460430914704409148045091490429833E
:101560003A834B835C838FBF69817A818B819C81B5
:101570000F900F900F900F90DF91CF910895809171
:10158000E102089508950895FC01CB012091BC0269
:101590003091BD022617370790F0009729F420916B
:1015A000E8002E772093E80040E0009751F44111C5
:1015B00008C08091E80082FF31C080E00895C90131
:1015C000F3CF20918A042223A9F12530A9F120919B
:1015D000E80023FD2DC02091E80022FDEACF2091F4
:1015E000E80020FFE2CF3091F3002091F200009755
:1015F00019F02830310558F041E02830310509F064
:1016000040E02091E8002E772093E800CECF419172
:101610004093F10001972F5F3F4FE9CF80918A04FB
:10162000882341F0853041F08091E80083FFC1CFED
:1016300081E0089582E0089583E008958091B602E4
:1016400087FF13C08091E80082FF06C08091E80008
:101650008B778093E80004C080918A048111F2CFD7
:10166000089580918A048823D9F38091E80080FF4F
:10167000F8CF8091E8008E77ECCF2091E400309194
:10168000E50095E6A9012091EC00822F817020FFF2
:1016900006C08091E80080FF06C080E00895209198
:1016A000E80022FD1AC080918A04882389F08530E1
:1016B00089F08091EB0085FD0FC02091E40030910E
:1016C000E50042175307F9F29150E1F684E00895DE
:1016D00082E0089583E0089581E00895E8EDF0E068
:1016E00080818E7F80831092E2001092DA00109247
:1016F000E100A0EEB0E08C9181608C9380818F77C7
:10170000808319BCA7EDB0E08C918E7F8C93808193
:101710008F7E80831092B50208959091C6049370D5
:1017200059F08093C7046093C8044093C904809122
:10173000C50481608093C5040895E6ECF4E08181DE
:1017400090E04381628108960C948D0BE6ECF4E006
:101750008181438162818850990B0C948D0BE6EC5A
:10176000F4E0628120E1620F08F46FEF8181438130
:1017700090E00C948D0BE6ECF4E0628120E1621BBA
:1017800008F460E08181438190E00C948D0BE6ECDD
:10179000F4E0438120E1420F08F44FEF8181628140
:1017A00090E00C948D0BE6ECF4E0438120E1421BC9
:1017B00008F440E08181628190E00C948D0BEF92FF
:1017C000FF920F931F93CF937C018B010E943D0BDF
:1017D000C82F811117C08091E80085FD0BC0809152
:1017E000E8008E778093E8000E943D0B882399F3F0
:1017F000C82F08C0F70181917F018093F10001504B
:10180000110949F78C2FCF911F910F91FF90EF9005
:101810000895DF92EF92FF920F931F93CF93DF9380
:101820007C01C0910401CC0FCC0F14E01C0FD12E11
:10183000143410F083E4D82E6091CA04669566953E
:1018400021E0620F08F46FEF80914E0490914F04F5
:101850000E944707082FD0E0CD1560F081E01334D7
:1018600008F080E0DF91CF911F910F91FF90EF90F2
:10187000DF900895FE01E85FFD4F808190910501A2
:10188000892391F06091C7047091C8048091C904C4
:10189000202F4C2FF70109950E94B606462F672F7F
:1018A000282FCE010E9431092196D6CFAF92BF9248
:1018B000CF92DF92EF92FF920F931F93CF93DF931C
:1018C0005C01C0910401CC0FCC0F14E01C0FC12EA1
:1018D000143410F033E4C32E6091CA0466958091ED
:1018E0004E0490914F040E944707D82ED0E0CE01BD
:1018F000880F991F9C012E573E4F7901CC1578F027
:1019000081E0133408F080E0DF91CF911F910F91B7
:10191000FF90EF90DF90CF90BF90AF900895FE01C1
:10192000E85FFD4F8081909105018923C1F0F701A7
:1019300021812052330B40814057550B6091C704E1
:101940007091C8048091C9040D2DF50109950E947C
:10195000B606462F672F282FCE010E943109F2E0EC
:10196000EF0EF11C2196CACF5F926F927F928F92F9
:101970009F92AF92BF92CF92DF92EF92FF920F931E
:101980001F93CF93DF934C01C0910401CC0FCC0F78
:1019900014E01C0F512E143410F033E4532E6091D8
:1019A000CA04669580914E0490914F040E944707A7
:1019B000F82ED0E0CE01880F991F9C012E573E4F84
:1019C0006901C515A0F081E0133408F080E0DF91D3
:1019D000CF911F910F91FF90EF90DF90CF90BF902C
:1019E000AF909F908F907F906F905F900895FE01D1
:1019F000E85FFD4F808190910501892379F1F6011F
:101A00008081282F2057330B59018181E82FE05224
:101A1000FF0B3F01AA9C9001AB9C300D300D1124AF
:101A2000EE9FC001EF9F900D900D1124820F931F28
:101A30000E945107082F6091C7047091C8048091DB
:101A4000C904EF2C9301A501F40109950E94B60683
:101A5000462F672F282FCE010E943109F2E0CF0ECA
:101A6000D11C2196AECFBF92CF92DF92EF92FF9220
:101A70000F931F93CF93DF9300D000D00F92CDB779
:101A8000DEB76C0180910401880F880F8B8394E08E
:101A9000F92EF80EBF2C93E49F1510F483E4B82EB2
:101AA0006091CA046695669580914E0490914F04AA
:101AB0000E944707182F80E4810F0E9496078058E4
:101AC0008983812F0E94960780588A83FB81EF2F9C
:101AD000F0E0FD83EC839C819B15A0F081E0E2E4C3
:101AE000EF1508F480E00F900F900F900F900F907B
:101AF000DF91CF911F910F91FF90EF90DF90CF90EA
:101B0000BF900895EC81FD81E85FFD4F8081909149
:101B100005018923A9F06091C7047091C8048091E0
:101B2000C904E12E0C812A814981F60109950E94A0
:101B3000B606462F672F282F8C819D810E94310980
:101B40008C819D8101969D838C83C5CF9091C60425
:101B50009370A1F0882399F0813198F48F73880FE6
:101B6000880F9091C6049370892B8093C6041092BD
:101B700018018091C50481608093C504089581E0B7
:101B8000EECF80E1ECCF8091C604869586958F5F7D
:101B9000813108F081E00C94A60D9091C6049695D1
:101BA00096958FEF890F913009F480E10C94A60D82
:101BB0008091CF04982F9670963019F488600C9419
:101BC000C809877FFCCF982F9093E900242F762FA8
:101BD00050E0891731F07091EC002091ED005091A8
:101BE000F00021FD06C09F5F973071F78093E900F8
:101BF00008953091EB003E7F3093EB003091ED0083
:101C00003D7F3093ED003091EB0031603093EB007D
:101C10007093EC002093ED005093F0002091EE00C3
:101C200027FDE1CF0895CF92DF92EF92FF920F93BD
:101C30001F93CF93DF93C8EDD0E088818F7E888398
:101C4000E7EDF0E080818160808384E082BF81E005
:101C50008093B50288818E7F888302EE10E0F801C0
:101C600010821092DA0081EEC82ED12CF60110827B
:101C700088818F77888388818068888388818F7D39
:101C8000888319BC10928A041092B40210925404F2
:101C90001092B30290EEE92EF12CF70180818B7F38
:101CA000808388818160888342E060E080E00E94D8
:101CB000E30DF60180818E7F8083F8018081816051
:101CC0008083808188608083F70180818E7F80831C
:101CD000888180618883DF91CF911F910F91FF9060
:101CE000EF90DF90CF9008950F931F93CF93C82F5D
:101CF00010E000E0893311F400E510E08C2F0E9421
:101D0000350A0115110531F48C2FCF911F910F91D8
:101D10000C948E098FE99FE00197F1F700C0000055
:101D200001501109EECF81E08093E00080E28093C2
:101D3000D8001092C9008FE19EE40197F1F700C02E
:101D4000000087E090EBDC0180930C0590930D057B
:101D5000A0930E05B0930F0588E19CE00FB6F894B0
:101D6000A895809360000FBE90936000FFCFCF9343
:101D7000DF93D82FC92F809117018823C1F180915B
:101D8000D10487FF34C060E284E08093E9008FEFE4
:101D90009091E800815095FD06C095ED9A95F1F778
:101DA00000008111F5CF8091E80085FF1DC0809172
:101DB000170170E050E040E0811104C050E040E0C5
:101DC00068E070E08D2F9C2F0E94DF0B8091E8006F
:101DD0008E778093E80080E2ED2FFC2FA1ECB2E03B
:101DE00001900D928A95E1F7DF91CF91089568E017
:101DF00081E0CBCF8093BE027093C0026093BF029C
:101E000080918A048430F9F48093E9008FEF9091F7
:101E1000E800815095FD06C095ED9A95F1F7000018
:101E20008111F5CF8091E80085FF0DC050E040E0C2
:101E300063E070E08EEB92E00E94DF0B8091E8009F
:101E40008E778093E8000895BC0183E00C94FA0E2D
:101E5000BC0184E00C94FA0ECF93682FC92F84E064
:101E600090E00E9452296C2F82E290E0CF910C9476
:101E700052299091D20492FB222720F9281769F069
:101E800080FB92F99093D2048091D1049091D20476
:101E90000E942C0F82E00C94E30908954F925F9208
:101EA0006F927F928F929F92AF92BF92CF92DF926A
:101EB000EF92FF920F931F93CF93DF9310E000E018
:101EC00036E9632E712CE801CC0FDD1F58011CC0D0
:101ED000F60185909490692DC7010E945229682DC2
:101EE000C70101960E94522922E0C20ED11C32E0A5
:101EF000E30EF11C4E145F0459F76E968FE0A80EA6
:101F0000B11CC615D70581F0C501880F991F9C012A
:101F1000205E3D4F69017E0137E2E30EF11C2E0188
:101F200085E4480E511CD4CF3E0126E9620E711C97
:101F3000055B1F4F0C3231E0130729F6DF91CF917B
:101F40001F910F91FF90EF90DF90CF90BF90AF90D7
:101F50009F908F907F906F905F904F900895CF9358
:101F6000C82F6FEF811162E283E290E00E94522954
:101F70006FEFC11162E084E290E00E9452296FEF9E
:101F8000C11161E085E290E0CF910C945229CF938A
:101F9000DF93CFE7D2E060E0CE010E945229219684
:101FA000C11584E0D807B9F7DF91CF91089580E09B
:101FB0000E94AF0F60E086E290E00E9452290E94EA
:101FC0004E0F0E94C70F81E00C94AF0FCF9384E0B7
:101FD00090E00E943429C82F82E290E00E943429C8
:101FE000982F8C2FCF91089583E290E00E9434299E
:101FF000823289F484E290E00E943429823059F4DC
:1020000085E290E00E94342991E0813009F090E06F
:10201000892F8170089580E0FCCF0F931F93CF9399
:10202000DF93C42FD0E0CC0FDD1F2EE1629FC00DE7
:10203000D11D112436E9839FC00DD11D1124CE017D
:1020400087960E943429082F10E0102F0027CE0118
:1020500088960E9434299801282BC901DF91CF91DD
:102060001F910F910895462F672F843030F47530FB
:1020700020F44F3010F40C940D1090E080E008959F
:10208000DF92EF92FF920F931F93CF93DF937C0128
:102090000091CF048091CE04082BC7E0D0E010E07F
:1020A000DC2EC8010C2E02C0959587950A94E2F7A4
:1020B00080FD0CC02197A0F7D12C8D2DDF91CF9101
:1020C0001F910F91FF90EF90DF900895B7018C2F33
:1020D0000E9433100E941805019761F3EECF0F9311
:1020E0001F93CF93FC01828100811181882389F0A5
:1020F000662379F0C8010E944010C82F682FC801DC
:102100000E94E303B8018C2FCF911F910F910C9483
:102110003310C8010E941104C82FF4CFCF93DF936E
:10212000D82FC92F0E9440106D2F7C2F0E94331092
:10213000DF91CF910C9418050E948E10282F892FC3
:102140008F70392F32953F70903C80F43A30B0F464
:10215000343020F4323090F480E008953630E1F7E6
:1021600081E0283E88F0213FB9F70EC03C3011F0E5
:102170003F3091F7869586958695089581E0203FBA
:1021800039F018F4283E40F70895243F29F7FCCF92
:1021900008951092CC0480911701E2E9F2E08823BF
:1021A00059F08091D10487FF07C08EE1DF011D92B5
:1021B0008A95E9F70C94B60986E0F8CF1F93CF9380
:1021C000DF93CDB7DEB7AA970FB6F894DEBF0FBE88
:1021D000CDBF86EB92E0FC0101962091F1002083B7
:1021E00022E08E3B9207B9F78091B702893009F45B
:1021F00056C0C8F4823009F4B3C0833009F482C0F9
:10220000813071F18091E80083FF84C28091B60231
:102210009091B7029A3008F07DC2E92FF0E0E552C4
:10222000F64D0C9479288A3009F489C08B3051F727
:102230008091B602813231F78091BA029091BB024F
:10224000892B01F78091E800877F8093E8000E9446
:102250001E0B8091B802809317010E94C910D2CF43
:102260008091B602813A71F68091E800877F809371
:10227000E8008091BA029091BB02892B61F460E280
:1022800081EC92E070E00E94C40A8091E8008B77B4
:102290008093E800B7CF60E090E080E0F3CF8091DA
:1022A000B602813209F0AECF8091BA029091BB02A2
:1022B0008D7F892B09F0A6CF8091E800877F8093DE
:1022C000E8008091E80082FF18C09091F3008091AF
:1022D000F200029731F48091F100813011F08630E4
:1022E00021F48091F1008093E1028091E8008B77E6
:1022F0008093E8000E941E0B85CF80918A04811193
:10230000E0CF80CF8091B602813A09F07BCF8091F7
:10231000BA029091BB02892B09F074CF8091E8003A
:10232000877F8093E8008091E80080FFFCCF809158
:1023300017018093F1008091E8008E77D9CF8091CA
:10234000B602813209F05ECF8091E800877F8093EA
:10235000E8000E941E0B8091B9028093B20252CF16
:102360008091B602813A09F04DCF8091E800877FD5
:102370008093E8008091E80080FFFCCF8091B2025A
:10238000D8CF803899F0823809F0C4C18091BA0260
:102390008F70873008F0BEC18093E9008091EB0018
:1023A00085FB882780F91092E90006C08091B3026E
:1023B00090915404911182609091E800977F9093DE
:1023C000E8008093F1001092F1008091E8008E7790
:1023D0009DC1882309F48BC1823009F09BC1809193
:1023E000B80281118EC18091BA028F702FEF280F31
:1023F000263008F08FC18093E9002091EB0020FF88
:1024000080C1933031F48091EB0080628093EB00C7
:1024100078C19091EB0090619093EB0021E030E067
:1024200001C0220F8A95EAF72093EA001092EA0091
:102430008091EB008860EACF81116CC11091B802E5
:102440001F778091E3008078812B8093E300809157
:10245000E800877F8093E8000E941E0B8091E800CF
:1024600080FFFCCF8091E30080688093E30082E0EE
:10247000111183E080938A044DC18058823008F0A6
:1024800049C14091B8025091B9024C3D83E05807D0
:1024900099F583E08A838AE289834FB7F894DE0155
:1024A000139620E03EE051E2E32FF0E05093570016
:1024B000849120FF03C082958F703F5F8F708A30B8
:1024C000C8F0895C90E08D939D932F5F243161F774
:1024D0004FBF8091E800877F8093E8006AE270E058
:1024E000CE0101960E94C40A8091E8008B77809308
:1024F000E80010C1805DE6CF8091BA029091BB02E6
:10250000252F33272330310509F44AC078F52130CF
:10251000310509F479C08BE590E0EBE7F1E022307A
:10252000310509F0F7C02091E800277F2093E800EB
:102530002091BC023091BD028217930708F49C01E0
:1025400040E02115310509F064C0411162C080915D
:10255000E80082FDC9CF80918A04882329F2853062
:1025600019F28091E80083FFF2CFBECF213231050E
:1025700009F43BC02232310509F0CCC0833091050B
:1025800008F0C8C0FC01EE0FFF1FED5DFE4F01908B
:10259000F081E02D805E9E4FDC018C9190E011C0B7
:1025A000CA019927413089F082309105B1F0892B19
:1025B00009F0B0C0ECE1F2E0E4918E2F90E0ECE1A4
:1025C000F2E0009709F4A6C0AECFEAE0F2E0E491B1
:1025D0008E2F90E0EAE0F2E0F4CFE8EEF1E0E49153
:1025E0008E2F90E0E8EEF1E0ECCF8330910508F01B
:1025F00091C0880F991FFC01E75DFE4F0190F081AB
:10260000E02D89E090E08FCF82E190E0E6EDF1E00F
:102610008ACF80918A04882309F466CF853009F433
:1026200063CF8091E80083FD5FCF8091E80082FD59
:102630008ECF8091E80080FF84CF9091F30080914D
:10264000F2002115310519F08830910550F041E074
:10265000089709F040E08091E8008E778093E800C9
:1026600070CF44914093F100319621503109019689
:10267000E8CF803809F04EC08091E800877F8093D2
:10268000E8008091B4028093F1009FCE811142C096
:102690001091B8021230F0F58091E800877F8093A6
:1026A000E8001093B4020E941E0B112311F084E085
:1026B00005C08091E30087FDFACF81E080938A0412
:1026C00042E061EC81E00E94E30D42E261EC84E0D3
:1026D0000E94E30D42E261EC82E00E94E30D42E2DF
:1026E00060EC83E00E94E30D80918A0413C0809126
:1026F000B802813079F481E0933009F080E0809372
:1027000054041092E9008091E800877F8093E800EC
:102710000E941E0B8091E80083FF0AC08091E800B0
:10272000877F8093E8008091EB0080628093EB00CC
:10273000AA960FB6F894DEBF0FBECDBFDF91CF9142
:102740001F91089569EE7EEF90E080E00E9470296D
:1027500060E082E090E00E94522960E083E090E037
:102760000E9452291092CE0460E084E090E00E9422
:10277000522960E082E290E00E94522960E085E008
:1027800090E00E94522960E086E090E00E94522989
:102790006FEF87E090E00E94522940E050E0BA01DC
:1027A00088E090E00E94642960E08DE090E00E9463
:1027B000522940E050E0BA0188E190E00E9464298B
:1027C00060E087E190E00E94522940E050E0BA01C9
:1027D0008CE190E00E94642970E060E080E290E08B
:1027E0000E94702940E050E0BA0188E190E00E9428
:1027F000642980E00E94AF0F0E94D70F40E050E0B4
:10280000BA018FE090E00E94642940E050E0BA01F4
:1028100083E190E00C94642990E080E00E943C29E0
:10282000893E9E4F11F40C94F40F80E00895E6EC7D
:10283000F4E081E180838091190190911A01A091C7
:102840001B0181839283A3838FE784838FEF85832A
:1028500046E050E06CE170E0CF010E944229109206
:10286000C5040895DF92EF92FF920F931F93CF93C9
:10287000DF93EC01FC01E85FFD4F80819091050141
:10288000892381F1D090C8040091C9041091C70434
:10289000E12EF12C0E94EE28282FC7018C549F4F67
:1028A00068E671E00E9465288E199F0997FD0396DE
:1028B00095958795959587952370612F289F600D35
:1028C00011247D2D802F0E94B606462F672F282FBA
:1028D000CE01DF91CF911F910F91FF90EF90DF908C
:1028E0000C943109DF91CF911F910F91FF90EF90E0
:1028F000DF9008959F92AF92BF92CF92DF92EF92B6
:10290000FF920F931F93CF93DF93182F809116019F
:10291000811323C09091C60493702091150130E07B
:1029200081E09217130609F480E08170809306011C
:102930008091CB0490910501981739F0809305019F
:1029400040E060E080E00E943309113160F4E12F43
:10295000F0E0EB51F64D0C94792881E0E6CF8091C0
:102960000601811120C0C0E0809104018F5F809337
:102970000401C1110CC082E080931801809106010E
:10298000811105C0111103C083E080931801DF910C
:10299000CF911F910F91FF90EF90DF90CF90BF905C
:1029A000AF909F90089540E060E080E00E9433097E
:1029B000DACFC0910401CC0FCC0F04E00C0FC02E75
:1029C000043410F093E4C92E6091C7047091C804D8
:1029D0008091C9040E94B606F62EE72ED82ED0E0CC
:1029E000CC1528F0C1E0033408F4BECFBCCFFE0103
:1029F000E85FFD4F808190910501892331F02D2DF5
:102A00004F2D6E2DCE010E9431092196E9CFC09144
:102A10000401CC0FCC0F04E00C0F902E043410F006
:102A200083E4982ED091C704B090C804C090C90424
:102A30006D2F7B2D8C2D0E94B606F62EE72ED82EFC
:102A40008091CA046D2F680F7B2D8C2D0E94B606D5
:102A5000C62EB72EA82ED0E0C91520F6FE01E85FDD
:102A6000FD4F908180910501892359F02A2D4C2D2D
:102A70006B2D90FD03C02D2D4F2D6E2DCE010E948C
:102A800031092196E9CF84EE97E00E94090CC82F06
:102A90006BCF81E198E0F9CF83E198E0F6CF8CE14C
:102AA00098E0F3CF85E298E0F0CF8EE398E00E94C3
:102AB000B40CEDCF8DE498E00E94560CE8CF86E789
:102AC00098E0FACF87E898E0F2CF8BE998E00E948F
:102AD000330DDDCF89EC98E0FACF88EF98E0F7CF9F
:102AE000C0910601C1111CC06091CA0420E1620FAF
:102AF00008F46FEF80914E0490914F040E944707B5
:102B00006AE070E00E945128892B09F02CCF0E94C6
:102B1000EE2863E470E00E9465280E94321424CFFE
:102B2000C0910401CC0FCC0F04E00C0F802F0434B3
:102B300008F083E4D0E0E82EF12CCE15DF050CF090
:102B400051CFCE010E9432142196F7CF40914A0412
:102B500050914B0460914C0470914D0480914E044F
:102B600090914F04A0915004B0915104841795079F
:102B7000A607B70708F4F7CE0E948107F82E0E9437
:102B8000810793E4891BF0F7890FC82FD0E0FE017D
:102B9000E85FFD4F808190910501892309F440C0D1
:102BA00020E040E060E0F1FC13C00E948107F82EB5
:102BB0000E948107782F76952FE7720F08F47FEF38
:102BC0006F2D8091C9040E94B606462F672F282FCB
:102BD000CE010E9431092091CA0430E1230F08F48C
:102BE0002FEF60E1822F90E00E944707BC0184EF45
:102BF00091E00E94512880914E0490914F04A09141
:102C00005004B0915104860F971FA11DB11D8093F0
:102C10004A0490934B04A0934C04B0934D04A3CE6C
:102C2000C1E0A2CE4F925F926F927F928F929F925D
:102C3000AF92BF92CF92DF92EF92FF92CF93C0906C
:102C40004204D0904304E0904404F09045048FB7D0
:102C5000F894409046045090470460904804709067
:102C600049048FBF530142018C189D08AE08BF086C
:102C70000E949F0A6093420470934304809344042B
:102C800090934504A0915504E5E5F4E04A2F50E007
:102C90002FEFC20ED21EE11CF11CC418D508E608A5
:102CA000F708A51325C04093550420915304C0E0B4
:102CB000211108C02091C604C22FC37019F0C22F81
:102CC000C695C69520911801223009F451C018F517
:102CD000211131C01092040160934E0470934F048F
:102CE000809350049093510481E08093180115C0A3
:102CF000218D328D2901712C612CC414D504E60478
:102D0000F70420F441505F5F3296CBCF280D391D78
:102D1000328F218FF8CF2330B1F1CF91FF90EF9018
:102D2000DF90CF90BF90AF909F908F907F906F90EB
:102D30005F904F9008958C2F0E947A14CC2369F3F2
:102D40000E94560981FFE9CF2FEF4FEF6FEF8EE121
:102D500090E0CF91FF90EF90DF90CF90BF90AF9039
:102D60009F908F907F906F905F904F900C9431095F
:102D7000C09316018091C6048370809315010E9450
:102D8000CB1883E0B2CF8091C504882351F046E090
:102D900050E06CE170E086EC94E00E9442291092D1
:102DA000C50440914E0450914F04609150047091BD
:102DB00051042FB7F8948091460490914704A09154
:102DC0004804B09149042FBF841B950BA60BB70B89
:102DD0004A97A105B10508F4A0CF109218019DCF24
:102DE000FF920F931F93CF93DF9300D000D0CDB706
:102DF000DEB7FC01F62E042F122F8334910570F5F7
:102E0000EE0FFF1FEE0FFF1FBF0168587B4F44E01E
:102E100050E0CE0101960E94FE2889818370282F00
:102E200030E04A8150E9859FC001112486509D4FB2
:102E3000FC01E40FF11DB497F0824B81FC01E40F1B
:102E4000F11DB49700834C81840F911DFC01B49750
:102E50001083F901E65EFB4F81E080830F900F90B5
:102E60000F900F90DF91CF911F910F91FF900895D8
:102E7000FF920F931F93CF93DF93182F062FF42EFB
:102E8000D0E0C0E02F2D402F612FCE010E94F01620
:102E90002196C334D105B1F7DF91CF911F910F91E6
:102EA000FF900895E6EEF2E06083418324E630E08F
:102EB00042E050E0BF01880F0C942428CF93DF93A9
:102EC000C82F4BE06DEF0E94521740E06AE08C2F54
:102ED0000E9452178FE39CE90197F1F700C00000B0
:102EE00040E060E08C2F0E94521740E061E08C2FA0
:102EF0000E94521740E066E08C2F0E94521740E07B
:102F00006DEF8C2F0E945217D0E040E06D2F8C2F78
:102F10000E945217DF5FD231C1F740E06D2F8C2F36
:102F20000E945217DF5FD432C1F740E06D2F8C2F23
:102F30000E945217DF5FD43BC1F74BE06DEF8C2F3F
:102F40000E94521741E06AE08C2F0E94521740E025
:102F50006DEF8C2FDF91CF910C945217EF92FF926F
:102F60000F931F93CF93DF93E82E062F10E0045E9C
:102F70001B4FF8018081882381F0F2E16F9FE0010F
:102F80001124C25EDB4FF12C49916F2D8E2D0E94D2
:102F90005217F39482E1F812F7CFF8011082DF9113
:102FA000CF911F910F91FF90EF9008954F925F92F4
:102FB0006F927F928F929F92AF92BF92CF92DF9249
:102FC000EF92FF920F931F93CF93DF9300D000D027
:102FD000CDB7DEB70E94762784E70E945E1787E7A9
:102FE0000E945E1708E714E074E8472E75E0572E3C
:102FF000E2E17E2EF8E0CF2ED12CEE24E394F12CEA
:103000006624639444E050E0B801CE0101960E942A
:10301000FE286A8170E0CB0184972B81422F4452B5
:10302000550B4A01EC81E452FF0B2981237030E0FB
:10303000AC0197FF02C0495F5F4F63E0559547952C
:103040006A95E1F7729E5001739EB00C1124B50190
:10305000625E7B4F5B01A40EB11CB6010E94652825
:10306000A70101C0440F8A95EAF7D5018C91842B02
:103070008C93C40197FC079653E0959587955A95D4
:10308000E1F7729E5001739EB00C1124A501425EBF
:103090005B4F5A01A80EB11CC401B6010E946528FD
:1030A000A70101C0440F8A95EAF7D5018C91842BC2
:1030B0008C93CF01F7FD079643E0959587954A9548
:1030C000E1F7729E5001739EB00C1124A501425E7F
:1030D0005B4F5A01A80EB11CCF01B6010E946528B2
:1030E000A70101C0440F8A95EAF7D5018C91842B82
:1030F0008C93245E3B4FF90160820C5F1F4F40169A
:10310000510609F07FCF60E084E70E94AE1761E0CE
:1031100087E70F900F900F900F90DF91CF911F9145
:103120000F91FF90EF90DF90CF90BF90AF909F9066
:103130008F907F906F905F904F900C94AE17EF92AE
:10314000FF921F93CF93DF937B01182F110FD0E0D5
:10315000C0E08C2F8C5D8093E602D701AC0FBD1FC1
:10316000E7EEF2E08D91819382E0E73FF807D1F737
:1031700024E630E041E150E066EE72E0812F0E94EB
:1031800024286096C039D10521F7DF91CF911F9196
:10319000FF90EF90089580911A04882329F06AEF38
:1031A00072E084E70E949F1810921A0480911B0419
:1031B000882329F06AE873E087E70E949F1810923D
:1031C0001B0408951F921FB61F9211248F939F9383
:1031D000AF93BF9380915204811113C08091460434
:1031E00090914704A0914804B09149044196A11DD3
:1031F000B11D8093460490934704A0934804B09374
:103200004904BF91AF919F918F911F901FBE1F9056
:1032100018952FB7F8948091460490914704A09197
:103220004804B09149042FBF08959C014FB7F8940A
:103230008091460490914704A0914804B0914904BC
:103240004FBF821B930B08954F925F926F927F92B4
:103250008F929F92AF92BF92CF92DF92EF92FF92A6
:103260000F931F93CF93DF93CDB7DEB72A970FB697
:10327000F894DEBF0FBECDBFFE0131968AE0DF01BC
:103280001D928A95E9F79BE4E92E92E0F92E8F01D1
:1032900020E5622E22E0722E2F01AA24A394B12CE5
:1032A0004FE5842E42E0942EF70181917F018F3FFC
:1032B00009F445C0F894E82FE295EF70F0E021A101
:1032C0008F70A50102C0440F551F8A95E2F7CA010D
:1032D000922F982B91A392A18095892382A3789411
:1032E00000C0E0E5F2E021E030E0D12CC12C4191BA
:1032F0004F3F09F45DC0A42FA295AF70A05EB0E06F
:103300008C9190E04F7002C0959587954A95E2F7B1
:1033100080FD4EC0C901C82AD92A220F331F8E163C
:103320009F0629F7F701319780818F3F11F00E94A6
:103330009D0650EA5A95F1F7D801CD92DC920E5FC6
:103340001F4F6E147F0409F0AFCF4AE050E0B20186
:1033500088E994E00E9407299C0111E0892B09F477
:1033600010E0232B41F18AE0F201A8E9B4E00190DA
:103370000D928A95E1F781E080938D040E940919EE
:1033800090938C0480938B0480918B0490918C0497
:103390000E941519039798F08AE0E8E9F4E0AEE896
:1033A000B4E001900D928A95E1F710928D0407C068
:1033B00080E090E0B0CF80918D048111E5CF812F26
:1033C0002A960FB6F894DEBF0FBECDBFDF91CF9126
:1033D0001F910F91FF90EF90DF90CF90BF90AF9033
:1033E0009F908F907F906F905F904F900895FF9285
:1033F0000F931F93CF93DF93C62FD42F122F8823C1
:10340000A9F06093C3040E9409199093B1028093BC
:10341000B002C77081E001C0880FCA95EAF7DF915A
:10342000CF911F910F91FF900C94C4048091C3041D
:10343000681334C08091B0029091B1020E941519B6
:10344000883C910558F500E20D0FCD17A9F0C77023
:10345000FF24F3948F2D01C0880FCA95EAF70E94CC
:10346000CE04083048F48D2F877001C0FF0C8A9578
:10347000EAF78F2D0E94C404812F0E94740E083039
:10348000A0F4D77081E001C0880FDA95EAF7DF91E8
:10349000CF911F910F91FF900C94CE04C77081E0E3
:1034A00001C0880FCA95EAF7F2CFDF91CF911F9143
:1034B0000F91FF9008953F924F925F926F927F928B
:1034C0008F929F92AF92BF92CF92DF92EF92FF9234
:1034D0000F931F93CF93DF9300D000D0CDB7DEB70B
:1034E0007C01FC019081818123813481232B21F097
:1034F00089238F3F09F058C50F900F900F900F90C0
:10350000DF91CF911F910F91FF90EF90DF90CF90BF
:10351000BF90AF909F908F907F906F905F904F90F3
:103520003F900895980122513F452031310508F020
:10353000E8C48FEF93E00E94342902513FE7832EC5
:1035400032E0932E882389F18091D0048770A1F214
:10355000F7018281882381F28091D20482FDCCCF51
:1035600082E00F900F900F900F90DF91CF911F91FD
:103570000F91FF90EF90DF90CF90BF90AF909F9012
:103580008F907F906F905F904F903F900C94E309E5
:103590008114F4E09F06C1F2C4010E943429811114
:1035A00001C001502FEF821A920A0111F1CF8091D0
:1035B0001C0190911D01A0911E01B0911F018983F2
:1035C0009A83AB83BC83442443942AE0322E840143
:1035D0000F5F1F4FC4010E94342989831A828823F8
:1035E00009F4B2CF9FEF980F9330F8F48A834982A1
:1035F00032E0830E911CC8010E9434298B838823FA
:1036000009F4A2CF8E010F5F1F4FF8012081222302
:10361000F1F29181213009F044C08281913039F476
:103620000E5F1F4F0E94740E08C04801EBCF92300E
:1036300039F40E5F1F4F0E94350A0F5F1F4FE5CF11
:10364000933029F40E5F1F4F0E948E09F6CF9430FD
:1036500019F00F5F1F4FF1CF0E5F1F4F20E030E0DA
:10366000B8016F5F7F4FF80141818053990B8A3019
:10367000910560F02115310501F38FE99FE0019775
:10368000F1F700C0000021503109F4CF329EF00163
:10369000339EF00D11249C012E0F3F1F842F8B01B0
:1036A000DFCFE22FF0E0EC54F94F5490822F869553
:1036B0008695869590E0FC01EC55F94FE4912770D2
:1036C000F0E0022E02C0F595E7950A94E2F73F017B
:1036D00031E063227724FC01EC56F94FA490B12C21
:1036E000022E02C0B594A7940A94E2F7E1E0AE225C
:1036F000BB24FC01EC57F94FC490D12C02C0D594E7
:10370000C7942A95E2F7F1E0CF22DD246114710419
:1037100019F081EE0E94350AA114B10419F086EE69
:103720000E94350A852D0E94740EAB2819F086EE92
:103730000E948E09672819F081EE0E948E09CD281B
:1037400009F47BCF8CE26ECF81E00E94CC090E940D
:10375000D80DFACE81E00E94D709F9CF82E0F5CFEB
:10376000053F2CE51207D1F027E245EE66EE063F55
:103770003CE5130741F027E245EE64EE043F9CE58B
:10378000190709F0E3C30E94F719DECE27E245EEE0
:1037900065EEF9CF26E241EE60EEF5CF26E241EE8E
:1037A00062EEF1CF01362DE5120709F4E4C38091F2
:1037B000CC048272063D2CE5120708F0D0C0023C12
:1037C0003CE5130708F4D6C0F801E35CFC45E3319F
:1037D000F10508F03EC1EA50F64D0C947928F80145
:1037E000E350FC458091D1048160E331F10528F577
:1037F000E75FF54D0C94792803309DE5190778F4BF
:103800000A3FECE51E0708F4C6C3F801EB5FFC4570
:10381000E830F105E8F4E45EF54D0C9479280136C2
:103820001D4509F0B8C39091D104892F8F7E94FF74
:10383000806103C08091D10482608093D104ABC3C6
:103840008091D1048460F9CF8091D1048860F5CF54
:103850008091D20481608093D2049DC38091D20470
:103860008260F9CF8091D1048061E7CF8091D1044B
:103870008062E3CF8091D1048064DFCF0E94C910C1
:103880008091D1048068D9CF8091D1048C60D5CF4C
:103890008091D2048360DFCF8091D1048E7FCDCF21
:1038A0008091D1048D7FC9CF8091D1048B7FC5CF0A
:1038B0008091D104877FC1CF8091D2048E7FCBCFFE
:1038C0008091D2048D7FC7CF8091D1048F7EB5CFF8
:1038D0008091D1048F7DB1CF8091D1048F7BADCF0A
:1038E0000E94C9108091D1048F77A7CF8091D10415
:1038F000837FA3CF8091D2048C7FADCF8091D10400
:1039000082FB992790F921E0922790FB82F990FBA6
:1039100083F993CF8091D204982F909591708E7FE8
:10392000892B90FB81F997CF0E94C9109091D10407
:10393000892F97FB87F9805880CF61E08EE090E077
:103940000E94522928C360E0F9CF8091C4048111FC
:1039500004C089E20E94440453C385E3FBCF0D35C4
:10396000100709F4F1CD0A359DE5190709F4DDC00A
:1039700008F0B9C00115FCE51F0709F4C6C00E3DEB
:103980001C4509F4CFC0F7018281C080D180882313
:1039900009F4CFC0C6010E944010182F682FC6013D
:1039A0000E94E303B601812F0E9433100E94180584
:1039B0008C01F701B280A580A2949FE0A92280919A
:1039C000D0048770C1F0CB2CBB20B1F0812F807F59
:1039D000803421F080E2800F883068F08091D2043A
:1039E00082FD09C082E00E94E3098091D0048770C3
:1039F000CC24C3948111C12CD12ED2948FE0D82233
:103A0000F8E0DF1609F494C1FD1508F4D2C023E0F4
:103A10002D1508F493C0812F807F1F7031E03D1574
:103A200008F0DBC0803211F01295107F002309F4FA
:103A30000AC1013009F444C1BB2009F44EC1AA20D7
:103A400009F444C1F701858180FFDCC08F70858354
:103A50003DC18091C60491E089278093C6041092ED
:103A600018018091C50481608093C5046DCD4DEC33
:103A70005DE063EC7DE00E94510966CD43EC5DE0C2
:103A80006DEC7DE0F8CF46EA5BE06DE97BE0F3CFDB
:103A90004DE95BE066EA7BE0EECF4BEB5BE06FEA83
:103AA0007BE0E9CF4FEA5BE06BEB7BE0E4CF43EDFB
:103AB0005BE067EC7BE0DFCF47EC5BE063ED7BE056
:103AC000DACF43E459E065E379E0D5CF45E359E047
:103AD00063E479E0D0CF81E00E94A60D35CD85E08A
:103AE000FBCF8AE0F9CF0B353DE5130701F10C352B
:103AF0001D4509F048CF8091D20482FB882780F9C8
:103B000091E089270E94390F3ECF0E94C9109FEF94
:103B1000E4E3FCE09150E040F040E1F700C0000039
:103B20000E94930E0E94A2130FCD81E0EBCF80E0A4
:103B3000E9CFC6010E941104182F34CF84E0D816B3
:103B400009F4DCC0ED2DE850FF0B349710F40E940F
:103B50005609CC20A9F08091D00480FD11C0F70156
:103B600012828595859585950E94CC09C7010E9492
:103B70005B1A8091D0048595859585950E94D7091B
:103B800060E0C7010F900F900F900F90DF91CF91E1
:103B90001F910F91FF90EF90DF90CF90BF90AF906B
:103BA0009F908F907F906F905F904F903F900C947C
:103BB0006F1099E0D91609F42BC186E08D0D8F7036
:103BC000823008F0BFCF023F09F031C1812F8F71E1
:103BD000B1102AC10E94CC09B5CF882311F01295EB
:103BE000107FBB20B9F0112369F080E2800F88308C
:103BF00010F0011109C08091CC04812B8093CC047A
:103C00000E947F04802F2FC08091D304812B80934A
:103C1000D304F6CF802F0E948E09112309F492CF8E
:103C200080E2800F883010F0011104C0812F0E94C3
:103C3000710406C010958091D30481238093D3042E
:103C40000E947F047FCF2091D20422FF16C0BB20A8
:103C500069F0112339F08091CC04812B8093CC043E
:103C60000E947F0480E00E94350A6CCF80E00E94B1
:103C70008E09112309F466CFD9CFBB20A1F0909112
:103C8000CD04892F812BA11003C00E94C4045ACFF8
:103C9000E1E0AE12FACF22FD55CF981709F452CFCA
:103CA0008093CD044FCFA11006C00E947904812FCC
:103CB0000E94CE0447CFF1E0AF1609F443CFF5CF11
:103CC000BB2031F025E02A1508F43CCF812FDDCF51
:103CD00034E03A1508F436CFEACFAA2041F309338D
:103CE00049F4FFEF27EE33E0F15020403040E1F798
:103CF00000C00000802F0E948E0924CF812F86955E
:103D00008695837061F0813009F01CCFC8019370F3
:103D1000B11002C090E080E00E94780913CFC80182
:103D20009370B11002C090E080E00E9462090ACF57
:103D3000812F8370A1F5B11005CF802F82958695D4
:103D40008770880F880F402F4F70082E01C0440FD6
:103D50000A94EAF7202F207104FF07C02FE030E01B
:103D600001C0220F8A95EAF72095169516951370D3
:103D7000123081F0822F842B133031F08091CE04E9
:103D8000113029F0242B82230E94C409DBCE842B1E
:103D9000822BFACF242B8091CE048227F5CFBB2033
:103DA00061F110FFCFCE802F829586958770880FA6
:103DB000880F402F4F70082E01C0440F0A94EAF775
:103DC000202F207104FF07C02FE030E001C0220F38
:103DD0008A95EAF72095169516951370123099F08A
:103DE000822F842B133031F08091CF04113041F0B9
:103DF000242B82230E94C809A5CE11FFA3CED3CFC6
:103E0000842B822BF7CF242B8091CF048227F2CFF3
:103E10001F70BB2029F0812F0E94CC09802F35CF45
:103E2000802F0E94CE04812F0E94D7098BCE033FA2
:103E300060F4003FB9F0013F81F0BB2009F451C0AC
:103E4000A110E0CE812F8F71C5CE033F09F1043F51
:103E5000A1F78091D20482FF26C0812F8F71BB20F1
:103E600019F3B8CEBB2079F084E08A1508F46ACE45
:103E70001F7181E090E001C0880F1A95EAF79091D8
:103E8000CF048927B7CF95E09A1508F45BCEF0CF21
:103E900080E0BB2009F4AECF1F7181E001C0880F24
:103EA0001A95EAF7A7CFBB2089F01F71812F0E94D6
:103EB000CC098091D20482FD07C0E8E01E9FC001BA
:103EC000112483608093D004812F84CE81E00E94EE
:103ED000E309F1E0FA1508F035CE82E00E94E3092B
:103EE00031CEAA2059F0093309F004CF2FEF37EE75
:103EF00083E0215030408040E1F7FACE812F8F716E
:103F000093CF0031FFE51F0709F41ECC01312FE5E7
:103F1000120709F423CC033F2CE5120709F43ACC2D
:103F200008F01ECC083D9CE5190709F42FCC28E2C7
:103F300041E0093DECE51E0709F42ACC26E241EEFA
:103F400061EE073DFCE51F0709F41DCC882309F449
:103F500040C01092C3040330EDE51E0708F022CCE8
:103F60000A3FFCE51F0738F4980122503C452431F4
:103F7000310508F048C00E94E60F9093D204809368
:103F8000D10406313CE5130708F036CC02308CE54D
:103F9000180708F024CC8091D1049091D2040E949B
:103FA0002C0F0E94C910D0CA61E0C7010E946F1097
:103FB0008C01F70182818111B5CA00313FE51307F9
:103FC00009F4C8CB01319FE5190709F0A4CF82E0BD
:103FD000C2CB06311C4509F0D6CC9091CC04882385
:103FE00009F4B3CC892F8A7A91E009F490E0909398
:103FF000C40469E2811165E380E992E00E94FF094F
:104000000E947F04A1CA06312CE5120731F3CFCB01
:104010001F93CF93DF9380910B05807FA9F480914C
:104020000805882389F08091D504C091D40470914B
:10403000060560910705A0910905B0910A05D62FE4
:10404000D72316E0C81304C0DF91CF911F910895C4
:1040500090E0109711F0DF3F19F401968770F2CFCE
:10406000189F9001199F300D1124F901EA52FB4F5E
:1040700041816413F2CF40814713EFCF4281411158
:10408000ECCF438154814A1B5B0B483C510528F718
:1040900080910B058F70806180930B05F901E552CB
:1040A000FB4F80818F708061808386E095E00E9465
:1040B0005B1ADF91CF911F910C943A048F929F92DB
:1040C000AF92BF92DF92EF92FF920F931F93CF9325
:1040D000DF93CDB7DEB72B970FB6F894DEBF0FBED8
:1040E000CDBF8C0185E0F801DE01179601900D929D
:1040F0008A95E1F7F801E280A380B48086E0882EFB
:1041000085E0982E9091060580910705209109057C
:1041100030910A052115310529F0482F49234F3FD9
:1041200009F028C1EE2009F433C1F80180819181A2
:104130000E949C10F82E882309F42AC186E0F80119
:10414000A6E0B5E001900D928A95E1F70E94082063
:1041500021C0D0900B054D2D407F283C310508F043
:10416000A8C0F80121814111C3C0FE2C281325C02D
:104170008081891322C0E11020C08D2D8F70806155
:1041800080930B0586E095E00E945B1A80910B05F9
:10419000F80185838F2D2B960FB6F894DEBF0FBEE6
:1041A000CDBFDF91CF911F910F91FF90EF90DF90E6
:1041B000BF90AF909F908F9008953F81AB2829F0DA
:1041C000822F83238F3F09F090C080E0F82FF17099
:1041D000DF2EE091D5044091D40456E080FD1CC050
:1041E000EE20C1F280910B05816080930B05F12CCC
:1041F000D1CF8E2F90E05E9FF0011124EA52FB4F49
:104200006181261306C06081361303C06281E61205
:10421000E7CF0196E82FE770E413EBCF8F81988505
:104220000E948E10292F22952F70903260F0225F0D
:104230002F70223078F49F7051F0F8019581907FB3
:1042400031F4D12C0AC09F7011F08823D1F3805E25
:104250008830B8F3C8010E945B1AFD2C9BCFF8018F
:10426000808191810E949C10882309F491C0EE20E6
:1042700009F48EC080910B05803270F080910605A4
:10428000909107059A8389831B82BD82AC82DE826E
:10429000CE0101960E945B1A86E0F801A6E0B5E027
:1042A00001900D928A95E1F70E940820FF24F39473
:1042B00071CF411132C086E095E00E945B1A86E022
:1042C000F40111928A95E9F792CFF80180819181EA
:1042D0000E949C108111E0CF80910B05816080933A
:1042E0000B05C8010E945B1A55CF81E08E256ECF69
:1042F0002813B5CFF80180818913B1CFE110AFCF7A
:10430000D582C8010E945B1A86E0F801A6E0B5E0FC
:1043100001900D928A95E1F73DCFF801218182133A
:104320009ECFF801808189139ACFE11098CFD58272
:10433000C8010E945B1A86E0F40111928A95E9F7A0
:1043400029CFF80121818213C0CFF8018081891320
:10435000BCCF80910B0580FDD7CF982F907FA1F225
:104360008583903F71F2982F907F905F8F70892B9B
:104370008583C7CFF0900805A501421B530B9A0116
:10438000F110E7CE283C3105B0F6FE2CE110D9CF74
:10439000C8010E945B1A8ACF1F93CF93DF93CDB7DA
:1043A000DEB767970FB6F894DEBF0FBECDBF342FD0
:1043B0004B8B252F5C8B962F6D8B7E8B8F8B4E8935
:1043C0005F8961111092D3041A8A3D872E879F87D7
:1043D000598B488B86E0FE013D96DE0117960190D1
:1043E0000D928A95E1F7CE0107960E945E20882300
:1043F00089F016E08091D5049091D404891349C0C6
:1044000067960FB6F894DEBF0FBECDBFDF91CF9198
:104410001F91089586E0FE013796DE011196019006
:104420000D928A95E1F79F8188852091D40440916F
:10443000D5046A857B85672BE1F289238F3FC9F21A
:1044400030E0C9010196877099274817190671F461
:104450000E94C9101092D4041092D50486E0E6E0C0
:10446000F5E0DF011D928A95E9F7C3CF96E0929FB0
:10447000D001939FB00D1124AA52BB4FFE0131967B
:1044800001900D929A95E1F78093D4040E943A042A
:10449000B0CF819FC00111248A529B4F0E945E20A1
:1044A000882309F4ADCF8091D50490E00196877000
:1044B00099278093D5049ECFCDB7DEB7AD970FB6C1
:1044C000F894DEBF0FBECDBF84B7877F84BF0FB621
:1044D000F894A895809160008861809360001092A4
:1044E00060000FBE80E890E00FB6F8948093610002
:1044F000909361000FBE85B7806885BF85B78068DF
:1045000085BF8BE996E090938F0280938E020E9484
:104510006E0B0E94130E8091E20084608093E20093
:10452000789480918A04882399F08091E900109111
:10453000EC001795112717958F70182B1092E90032
:104540008091E80083FD0E94DE101F701093E90047
:1045500082E084BD93E095BD9AEF97BD80936E0095
:104560000E94F40F811102C00E94D70F0BE412E0E9
:1045700040E5E42E42E0F42ED8018D918D018F3F6D
:1045800011F00E949D06E016F106B1F700E512E079
:104590003FE5E32E32E0F32EF80181918F018F3F4A
:1045A00011F00E949D06E016F106B1F78AE0EEE8F0
:1045B000F4E0DF01282F1D922A95E9F7E8E9F4E0FD
:1045C000DF011D928A95E9F70E940C14811102C047
:1045D0000E94A21382E090E00E94342980937F041D
:1045E0000E94E60F9093D2048093D1040E94241974
:1045F000EFEBFDE53197F1F700C000000E942419B0
:1046000080918E0480FF08C06FEF7FEF90E080E024
:104610000E9470290E94930E83E090E00E9434294A
:104620000E94C4090E94D6171092550440E150E040
:104630006FEF70E08EE694E00E941D290E940C143A
:10464000811104C00E94A2130E94171446E050E09A
:104650006CE170E086EC94E00E9424291092C5047D
:104660008091C6048C7F11F40E9417148091D104AC
:1046700080688093D1048091D1049091D2040E94EB
:104680002C0F89E091E09093A3048093A204809181
:104690008A04853089F490E4F92E23E0E22E00E1CB
:1046A00012E180918A04853009F4B0C00E94C910DB
:1046B0000E945609109253040E94241981110E94ED
:1046C0009F0A0EE8E02E04E0F02E80E894E09AA322
:1046D00089A387E3282E81E0382EF9A6E8A6712C5D
:1046E000612CE8A5F9A581909190F9A7E8A7A9A167
:1046F000BAA18D919D91BAA3A9A38815990509F432
:1047000005C1FC01E825F925FDA7ECA73EA22DA2D5
:10471000512CCC24C394D12C1297BBA7AAA78CA54B
:104720009DA58C219D21892B09F4E4C059826A82C0
:1047300084010C211D2181E00115110509F480E09F
:104740008B830E9409198160782F9D838C83498116
:104750005A816B81892F0E94CC21AAA5BBA58D917E
:104760009C9111978C259D258D939C93012B31F065
:10477000EDA1FEA180818F3F09F099C0412C042D4D
:1047800010E080915504800F912F911D09976CF1D5
:10479000F8E0AF2EB12CA01AB10AB8016A5A7B4FCB
:1047A000A50186E594E00E941429B801625A7B4F66
:1047B000A5018EE594E00E941429A501440F551F20
:1047C000B801660F771F62597B4F8EE694E00E9416
:1047D0001429B8016A597B4FA50186E694E00E942E
:1047E000142988E08419809355048091550490E041
:1047F000EFA1AE2FB0E09D01220F331F2E573E4F89
:10480000AA0FBB1FBD016D577E4F6AC080918A04FD
:10481000843009F439C00E9412168091530481112A
:104820000DC00E947A14109216018091C604837004
:10483000809315010E94CB18E0921801F1E0F093EB
:1048400053041092520428E130E00FB6F894A89572
:10485000209360000FBEF092600083B7817F846078
:1048600083BF83B7816083BF7894889583B78E7F39
:1048700083BF0FB6F894A8958091600088618093FB
:104880006000109260000FBE80915404882309F4E8
:1048900008CF0E942419EEE8F4E081919191892BD0
:1048A00009F0C0C134E0E839F307B9F7FACE8FA3B5
:1048B0004424439464CF90E0FC01EB5AFB4FD901B0
:1048C0005C915183DB015C915187BFA1B18B880F53
:1048D000991FFC01EB5AFB4F128E118E842F91E031
:1048E00041E0480F941538F3809355047394F7E032
:1048F000F71528F15394CC0CDD1C2DA13EA12F5FA0
:104900003F4F3EA32DA33FE0531209CF63945FE0D6
:10491000250E311C85E06812E4CE711010C08FEFB7
:1049200089838A831B820E9409198160782F9D8365
:104930008C8349815A816B81892F0E94CC210E94EE
:1049400012160E94560990917E04891721F00E9448
:10495000560980937E0480918A04843009F097CEB2
:1049600083E08093E9008091E80082FF90CE8091FF
:10497000E80090E085FF05C00E943D0B882399F078
:1049800091E08091E8008B778093E800992309F407
:104990007ECEE981E150E33108F082C0F0E0EC5DC9
:1049A000F54D0C94792800E210E0DE0111966D01BE
:1049B0008091E80085FD0AC08091E8008B778093A4
:1049C000E8000E943D0B882399F3DACF8091F10033
:1049D000F60181936F010150110951F7D1CF1A826D
:1049E00089E08B8311C08A81823009F431C1833020
:1049F00089F1813009F054C00E949F0A0E947F28EB
:104A00006B837C838D839E8380918A04843009F03C
:104A10003ECE1091E9008091EC001F7087958827A9
:104A20008795182B82E08093E9008091E80080FF51
:104A30000DC050E040E060E270E0CE0101960E94BF
:104A4000DF0B8091E8008E778093E8001F70109351
:104A5000E9001DCEFE013196D7018C9111969C91F3
:104A6000B2E0EB0EF11C92838383329628E934E0A6
:104A70002E153F0589F7C8CF8A81823089F48B8152
:104A80009C81AD81BE8189A39AA3ABA3BCA3BC01C9
:104A9000CD010E947F2886E290E00E945229B4CF87
:104AA0008FEF8983B1CF4C816B818A810E940D1079
:104AB0009827892798279E838D83A6CFED80FE8037
:104AC000FE24EF24FE248A810B819EE1099F800150
:104AD0001124A6E98A9F000D111D11248C8190E0FC
:104AE000880F991F080F191F6F2DC80187960E9404
:104AF00052296E2DC8018896D0CF0E944E0F84CFC8
:104B000080E18A8381CFB1E0BA8381E86ACF0A81EC
:104B10001B811027012710278C816801C80ED11C2A
:104B20007E01E5E0EE0EF11CC80181589D4FC016D4
:104B3000D10609F469CF0138F1E01F0740F40E9463
:104B40003429D7018D937D010F5F1F4FEDCF80E09A
:104B5000F8CF0A811B81102701271027FE0131960B
:104B60007F018C816F01C80ED11CC80181589D4FF7
:104B7000CE14DF0409F448CF0138F1E01F0728F410
:104B8000D70114966C910E9452290F5F1F4FBFEFFF
:104B9000EB1AFB0AEACF0E94C70F36CF84E0B1CFF1
:104BA0000A811B811027012710278C816801C80EFC
:104BB000D11C7E01E5E0EE0EF11CC80187960C15B4
:104BC0001D0509F421CF0835F2E01F0740F40E94CB
:104BD0003429D7018D937D010F5F1F4FEECF80E009
:104BE000F8CF0A811B81102701271027FE0131967B
:104BF0007F018C816F01C80ED11CC8018796EC140F
:104C0000FD0409F401CF0835F2E01F0728F4D701AD
:104C100014966C910E9452290F5F1F4FBFEFEB1A41
:104C2000FB0AEBCF09BD19BD09B400FEFDCF809191
:104C3000D8008F7D8093D8008091E00082608093BF
:104C4000E0008091E00081FDFCCF0E94C91029CDD9
:104C500086E290E00E9434291B821C821D828E8392
:104C6000D3CE78941F921FB61F9211248F939F93D7
:104C7000AF93BF938091460490914704A09148045C
:104C8000B09149040196A11DB11D809346049093F3
:104C90004704A0934804B0934904BF91AF919F91FA
:104CA0008F911F901FBE1F9018951F920F920FB6E5
:104CB0000F9211242F933F934F935F936F937F93A2
:104CC0008F939F93AF93BF93EF93FF938091E100F6
:104CD00082FF09C08091E20082FF05C08091E1005F
:104CE0008B7F8093E1008091DA0080FF24C0809167
:104CF000D80080FF20C08091DA008E7F8093DA0098
:104D00008091D90080FF9BC080E189BD82E189BD8F
:104D100009B400FEFDCF81E080938A048091B50242
:104D2000811109C00E946E0B0E94130E8091E20057
:104D300084608093E2008091E10080FF17C0809141
:104D4000E20080FF13C08091E2008E7F8093E2003A
:104D50008091E20080618093E2008091D8008062BF
:104D60008093D80019BC85E080938A048091E1008B
:104D700084FF29C08091E20084FF25C080E189BDC5
:104D800082E189BD09B400FEFDCF8091D8008F7DFE
:104D90008093D8008091E1008F7E8093E100809124
:104DA000E2008F7E8093E2008091E2008160809338
:104DB000E2008091B402882309F447C084E0809324
:104DC0008A0480918A048091E10083FF27C080914A
:104DD000E20083FF23C08091E100877F8093E100A0
:104DE00082E080938A041092B4028091E1008E7F69
:104DF0008093E1008091E2008E7F8093E2008091B9
:104E0000E20080618093E20042E060E080E00E9486
:104E1000E30D8091F00088608093F000FF91EF91A6
:104E2000BF91AF919F918F917F916F915F914F91C2
:104E30003F912F910F900FBE0F901F90189519BCA6
:104E400010928A041092B50276CF8091E30087FD1C
:104E500002C081E0B4CF83E0B2CF1F920F920FB6B1
:104E60000F921124FF920F931F932F933F934F9311
:104E70005F936F937F938F939F93AF93BF93CF93E2
:104E8000DF93EF93FF9309EE10E0F8018081C0916A
:104E9000EC00C795CC27C7958F70FC2EF82A10829E
:104EA000C0EFD0E08881877F888378940E94DE10ED
:104EB000F8011082888188608883CF2DCF70C083ED
:104EC000FF91EF91DF91CF91BF91AF919F918F9122
:104ED0007F916F915F914F913F912F911F910F9112
:104EE000FF900F900FBE0F901F9018951092B90071
:104EF0008CE08093B80008959F92AF92BF92CF92BA
:104F0000DF92EF92FF920F931F93CF93DF93B82E10
:104F1000EB010E9409196C01EE24E394F12CC431D9
:104F2000D10560F025E0E22EF12CCF3FDC0731F017
:104F3000CE0164E170E00E9451287B0184EAA82E32
:104F400094E8992E1092BC00A092BC000E9409190E
:104F50008C018091BC0087FF0CC08091B900887FD4
:104F6000883031F18091B900887F803109F10FEFED
:104F700008C00E940919801B910B8E159F0548F3EC
:104F80000EEF1FEFCF3FDC07E9F2C6010E941519B3
:104F90008C179D07B8F2C801DF91CF911F910F9137
:104FA000FF90EF90DF90CF90BF90AF909F900895CB
:104FB000B092BB009092BC000E9409198C018091B4
:104FC000BC0087FF0AC02091B900287F283111F06A
:104FD000203469F600E010E0DECF0E940919801B42
:104FE000910B8E159F0558F3CBCF0F931F93CF9343
:104FF000DF93EB018093BB0084E88093BC000E94A8
:1050000009198C018091BC0087FF11C02091B90063
:10501000287F81E090E0283211F490E080E09195C3
:1050200081959109DF91CF911F910F910895CF3F05
:10503000DC0741F30E940919801B910B8C179D0717
:1050400008F38EEF9FEFEECFCF92DF92EF92FF92B9
:105050000F931F93CF93DF936B018A01F22EE32E00
:10506000622F732F0E947C27AC01E6010C0D1D1DE1
:10507000C017D10711F057FF0DC084E98093BC0021
:10508000CA01DF91CF911F910F91FF90EF90DF90B8
:10509000CF9008956F2D7E2D89910E94F527AC0148
:1050A000E7CFAA1BBB1B51E107C0AA1FBB1FA61756
:1050B000B70710F0A61BB70B881F991F5A95A9F7C1
:1050C00080959095BC01CD01089597FB072E16F4AD
:1050D000009407D077FD09D00E94512807FC05D025
:1050E0003EF4909581959F4F0895709561957F4FFF
:1050F0000895EE0FFF1F0590F491E02D09946927A4
:10510000962769277827872778270895CF92DF92F7
:10511000EF92FF92CF93DF93CDB7DEB72A970FB60A
:10512000F894DEBF0FBECDBF89879A87A985BA855F
:105130002D913D914D915C9129833A834B835C8302
:10514000232B242B252B41F424E239ED4BE557E0AA
:1051500029833A834B835C8369817A818B819C812B
:105160002DE133EF41E050E00E94762969017A0198
:10517000A7EAB1E49B01AC010E94952969837A8377
:105180008B839C83ACEEB4EFA70196010E94A32908
:105190009B01AC0189819A81AB81BC81820F931FF5
:1051A000A41FB51FB7FF03C00197A109B048E98547
:1051B000FA8580839183A283B3839F772A960FB663
:1051C000F894DEBF0FBECDBFDF91CF91FF90EF907F
:1051D000DF90CF9008950E948628089580E091E0A6
:1051E0000E9486280895B0E0A0E08093000190938B
:1051F0000101A0930201B09303010895FB01DC01BA
:1052000002C005900D9241505040D8F70895FB011F
:10521000DC0104C08D910190801921F4415050406F
:10522000C8F7881B990B0895FB01DC0102C00190AF
:105230000D9241505040D8F70895DC0101C06D93A4
:1052400041505040E0F70895DC01CB01FC01F99991
:10525000FECF06C0F2BDE1BDF89A319600B40D92C2
:1052600041505040B8F70895F999FECF92BD81BDE5
:10527000F89A992780B50895A8E1B0E042E050E09F
:105280000C942629DC01A40FB51F4150504048F072
:10529000CB01840F951F2E910E94532941505040FD
:1052A000D0F70895262FF999FECF92BD81BDF89AC7
:1052B000019700B4021639F01FBA20BD0FB6F8945A
:1052C000FA9AF99A0FBE08950396272F0E94532940
:1052D0000E945229252F0E945329242F0C945329D0
:1052E0000196272F0E9453290C945229052E97FBD3
:1052F0001EF400940E948D2957FD07D00E94A82912
:1053000007FC03D04EF40C948D29509540953095B0
:1053100021953F4F4F4F5F4F089590958095709521
:1053200061957F4F8F4F9F4F08950E94CA29A59F77
:10533000900DB49F900DA49F800D911D1124089590
:10534000B7FF0C9495290E949529821B930B089511
:10535000A1E21A2EAA1BBB1BFD010DC0AA1FBB1F79
:10536000EE1FFF1FA217B307E407F50720F0A21BEB
:10537000B30BE40BF50B661F771F881F991F1A9458
:1053800069F760957095809590959B01AC01BD0182
:10539000CF010895A29FB001B39FC001A39F700DDC
:1053A000811D1124911DB29F700D811D1124911D2D
:1053B0000895F894FFCFC111E9118A13E9118A13F6
:1053C0001C123D128A1339134613AF14D914071552
:1053D000431549154C154F15521555155A155F159E
:1053E000621565156A156D157015A615371D3E1DDC
:1053F000431D481D4D1D521D571D5C1D611D661D21
:105400006B1DA41A6F1D711DA41AA41AA41AA41A44
:10541000A41A1A1C201C241C321C361C3A1C3E1CCC
:10542000441C4C1C501C541C581C641C681C6C1CD8
:10543000701C761C941C7E1C2E1C5C1C601C481C62
:105440007A1C8A1C9D1CA31CEF24F3243C255325A5
:105450005E257D2550255025502550255025802539
:0E54600083258725A925CB25CE25D025F1252E
:10546E000100000000FF003905BF0AB70EC20A2472
:10547E000F280FC30AFFFF010300FFFF000000000B
:10548E0040226D3B011901AC008D01A601C6010041
:10549E003131295A1B750A0001020304050607085B
:1054AE00090A0B0C0D0E0F101112131415161718E6
:1054BE00191A1B1C1D1E1F202122232425262728D6
:1054CE0029FF2A2B2C2D2E2F3031323334353637FF
:1054DE00FF38393A3B3CFFFF3DFFFF3EFF3F40FFA9
:1054EE00414200000F001E002D003C004B005A00F0
:1054FE006900780087009600A500B400CB00E0009C
:10550E00041017102610351044105310621071102D
:10551E0080108F109E10AD10BC10CE10E010062023
:10552E001A202920382047205620652074208320F9
:10553E009220A120B020C920E02009302230313045
:10554E0040304F305E306D307C308B309A30A93029
:10555E00BD30D230E03002401540274060409840C8
:10556E00AB40C340D240E0400104040404040404F0
:10557E0004040404040401010404040404040404E3
:10558E0004040404040101040404040404040404D3
:10559E0004040401010404040404040404040404C3
:1055AE000401010101040101010101F0F1F4C666DB
:1055BE00F7F6F5673031323334979694959392E23D
:1055CE0000E900EA00B500B600B700CD008301CCBB
:1055DE00008A01920194012102230224022502264F
:0E55EE000227022A02B300B4006F0070000012
:00000001FF
